{
  "_format": "hh-sol-artifact-1",
  "contractName": "Contract",
  "sourceName": "contracts/Contract.sol",
  "abi": [
    {
      "inputs": [
        {
          "internalType": "string",
          "name": "_name",
          "type": "string"
        },
        {
          "internalType": "string",
          "name": "_symbol",
          "type": "string"
        },
        {
          "internalType": "address",
          "name": "_royaltyRecipient",
          "type": "address"
        },
        {
          "internalType": "uint128",
          "name": "_royaltyBps",
          "type": "uint128"
        },
        {
          "internalType": "address",
          "name": "_primarySaleRecipient",
          "type": "address"
        }
      ],
      "stateMutability": "nonpayable",
      "type": "constructor"
    },
    {
      "inputs": [],
      "name": "ApprovalCallerNotOwnerNorApproved",
      "type": "error"
    },
    {
      "inputs": [],
      "name": "ApprovalQueryForNonexistentToken",
      "type": "error"
    },
    {
      "inputs": [],
      "name": "ApprovalToCurrentOwner",
      "type": "error"
    },
    {
      "inputs": [],
      "name": "ApproveToCaller",
      "type": "error"
    },
    {
      "inputs": [],
      "name": "BalanceQueryForZeroAddress",
      "type": "error"
    },
    {
      "inputs": [],
      "name": "MintToZeroAddress",
      "type": "error"
    },
    {
      "inputs": [],
      "name": "MintZeroQuantity",
      "type": "error"
    },
    {
      "inputs": [],
      "name": "OwnerQueryForNonexistentToken",
      "type": "error"
    },
    {
      "inputs": [],
      "name": "TransferCallerNotOwnerNorApproved",
      "type": "error"
    },
    {
      "inputs": [],
      "name": "TransferFromIncorrectOwner",
      "type": "error"
    },
    {
      "inputs": [],
      "name": "TransferToNonERC721ReceiverImplementer",
      "type": "error"
    },
    {
      "inputs": [],
      "name": "TransferToZeroAddress",
      "type": "error"
    },
    {
      "inputs": [],
      "name": "URIQueryForNonexistentToken",
      "type": "error"
    },
    {
      "anonymous": false,
      "inputs": [
        {
          "indexed": true,
          "internalType": "address",
          "name": "owner",
          "type": "address"
        },
        {
          "indexed": true,
          "internalType": "address",
          "name": "approved",
          "type": "address"
        },
        {
          "indexed": true,
          "internalType": "uint256",
          "name": "tokenId",
          "type": "uint256"
        }
      ],
      "name": "Approval",
      "type": "event"
    },
    {
      "anonymous": false,
      "inputs": [
        {
          "indexed": true,
          "internalType": "address",
          "name": "owner",
          "type": "address"
        },
        {
          "indexed": true,
          "internalType": "address",
          "name": "operator",
          "type": "address"
        },
        {
          "indexed": false,
          "internalType": "bool",
          "name": "approved",
          "type": "bool"
        }
      ],
      "name": "ApprovalForAll",
      "type": "event"
    },
    {
      "anonymous": false,
      "inputs": [
        {
          "components": [
            {
              "internalType": "uint256",
              "name": "startTimestamp",
              "type": "uint256"
            },
            {
              "internalType": "uint256",
              "name": "maxClaimableSupply",
              "type": "uint256"
            },
            {
              "internalType": "uint256",
              "name": "supplyClaimed",
              "type": "uint256"
            },
            {
              "internalType": "uint256",
              "name": "quantityLimitPerTransaction",
              "type": "uint256"
            },
            {
              "internalType": "uint256",
              "name": "waitTimeInSecondsBetweenClaims",
              "type": "uint256"
            },
            {
              "internalType": "bytes32",
              "name": "merkleRoot",
              "type": "bytes32"
            },
            {
              "internalType": "uint256",
              "name": "pricePerToken",
              "type": "uint256"
            },
            {
              "internalType": "address",
              "name": "currency",
              "type": "address"
            }
          ],
          "indexed": false,
          "internalType": "struct IClaimCondition.ClaimCondition",
          "name": "condition",
          "type": "tuple"
        },
        {
          "indexed": false,
          "internalType": "bool",
          "name": "resetEligibility",
          "type": "bool"
        }
      ],
      "name": "ClaimConditionUpdated",
      "type": "event"
    },
    {
      "anonymous": false,
      "inputs": [
        {
          "indexed": false,
          "internalType": "string",
          "name": "prevURI",
          "type": "string"
        },
        {
          "indexed": false,
          "internalType": "string",
          "name": "newURI",
          "type": "string"
        }
      ],
      "name": "ContractURIUpdated",
      "type": "event"
    },
    {
      "anonymous": false,
      "inputs": [
        {
          "indexed": true,
          "internalType": "address",
          "name": "newRoyaltyRecipient",
          "type": "address"
        },
        {
          "indexed": false,
          "internalType": "uint256",
          "name": "newRoyaltyBps",
          "type": "uint256"
        }
      ],
      "name": "DefaultRoyalty",
      "type": "event"
    },
    {
      "anonymous": false,
      "inputs": [
        {
          "indexed": true,
          "internalType": "address",
          "name": "prevOwner",
          "type": "address"
        },
        {
          "indexed": true,
          "internalType": "address",
          "name": "newOwner",
          "type": "address"
        }
      ],
      "name": "OwnerUpdated",
      "type": "event"
    },
    {
      "anonymous": false,
      "inputs": [
        {
          "indexed": true,
          "internalType": "address",
          "name": "platformFeeRecipient",
          "type": "address"
        },
        {
          "indexed": false,
          "internalType": "uint256",
          "name": "platformFeeBps",
          "type": "uint256"
        }
      ],
      "name": "PlatformFeeInfoUpdated",
      "type": "event"
    },
    {
      "anonymous": false,
      "inputs": [
        {
          "indexed": true,
          "internalType": "address",
          "name": "recipient",
          "type": "address"
        }
      ],
      "name": "PrimarySaleRecipientUpdated",
      "type": "event"
    },
    {
      "anonymous": false,
      "inputs": [
        {
          "indexed": true,
          "internalType": "uint256",
          "name": "tokenId",
          "type": "uint256"
        },
        {
          "indexed": true,
          "internalType": "address",
          "name": "royaltyRecipient",
          "type": "address"
        },
        {
          "indexed": false,
          "internalType": "uint256",
          "name": "royaltyBps",
          "type": "uint256"
        }
      ],
      "name": "RoyaltyForToken",
      "type": "event"
    },
    {
      "anonymous": false,
      "inputs": [
        {
          "indexed": true,
          "internalType": "uint256",
          "name": "index",
          "type": "uint256"
        },
        {
          "indexed": false,
          "internalType": "string",
          "name": "revealedURI",
          "type": "string"
        }
      ],
      "name": "TokenURIRevealed",
      "type": "event"
    },
    {
      "anonymous": false,
      "inputs": [
        {
          "indexed": true,
          "internalType": "address",
          "name": "claimer",
          "type": "address"
        },
        {
          "indexed": true,
          "internalType": "address",
          "name": "receiver",
          "type": "address"
        },
        {
          "indexed": true,
          "internalType": "uint256",
          "name": "startTokenId",
          "type": "uint256"
        },
        {
          "indexed": false,
          "internalType": "uint256",
          "name": "quantityClaimed",
          "type": "uint256"
        }
      ],
      "name": "TokensClaimed",
      "type": "event"
    },
    {
      "anonymous": false,
      "inputs": [
        {
          "indexed": true,
          "internalType": "uint256",
          "name": "startTokenId",
          "type": "uint256"
        },
        {
          "indexed": false,
          "internalType": "uint256",
          "name": "endTokenId",
          "type": "uint256"
        },
        {
          "indexed": false,
          "internalType": "string",
          "name": "baseURI",
          "type": "string"
        },
        {
          "indexed": false,
          "internalType": "bytes",
          "name": "encryptedBaseURI",
          "type": "bytes"
        }
      ],
      "name": "TokensLazyMinted",
      "type": "event"
    },
    {
      "anonymous": false,
      "inputs": [
        {
          "indexed": true,
          "internalType": "address",
          "name": "from",
          "type": "address"
        },
        {
          "indexed": true,
          "internalType": "address",
          "name": "to",
          "type": "address"
        },
        {
          "indexed": true,
          "internalType": "uint256",
          "name": "tokenId",
          "type": "uint256"
        }
      ],
      "name": "Transfer",
      "type": "event"
    },
    {
      "inputs": [
        {
          "internalType": "address",
          "name": "to",
          "type": "address"
        },
        {
          "internalType": "uint256",
          "name": "tokenId",
          "type": "uint256"
        }
      ],
      "name": "approve",
      "outputs": [],
      "stateMutability": "nonpayable",
      "type": "function"
    },
    {
      "inputs": [
        {
          "internalType": "address",
          "name": "owner",
          "type": "address"
        }
      ],
      "name": "balanceOf",
      "outputs": [
        {
          "internalType": "uint256",
          "name": "",
          "type": "uint256"
        }
      ],
      "stateMutability": "view",
      "type": "function"
    },
    {
      "inputs": [
        {
          "internalType": "uint256",
          "name": "_tokenId",
          "type": "uint256"
        }
      ],
      "name": "burn",
      "outputs": [],
      "stateMutability": "nonpayable",
      "type": "function"
    },
    {
      "inputs": [
        {
          "internalType": "address",
          "name": "_receiver",
          "type": "address"
        },
        {
          "internalType": "uint256",
          "name": "_quantity",
          "type": "uint256"
        },
        {
          "internalType": "address",
          "name": "_currency",
          "type": "address"
        },
        {
          "internalType": "uint256",
          "name": "_pricePerToken",
          "type": "uint256"
        },
        {
          "components": [
            {
              "internalType": "bytes32[]",
              "name": "proof",
              "type": "bytes32[]"
            },
            {
              "internalType": "uint256",
              "name": "maxQuantityInAllowlist",
              "type": "uint256"
            }
          ],
          "internalType": "struct IDropSinglePhase.AllowlistProof",
          "name": "_allowlistProof",
          "type": "tuple"
        },
        {
          "internalType": "bytes",
          "name": "_data",
          "type": "bytes"
        }
      ],
      "name": "claim",
      "outputs": [],
      "stateMutability": "payable",
      "type": "function"
    },
    {
      "inputs": [],
      "name": "claimCondition",
      "outputs": [
        {
          "internalType": "uint256",
          "name": "startTimestamp",
          "type": "uint256"
        },
        {
          "internalType": "uint256",
          "name": "maxClaimableSupply",
          "type": "uint256"
        },
        {
          "internalType": "uint256",
          "name": "supplyClaimed",
          "type": "uint256"
        },
        {
          "internalType": "uint256",
          "name": "quantityLimitPerTransaction",
          "type": "uint256"
        },
        {
          "internalType": "uint256",
          "name": "waitTimeInSecondsBetweenClaims",
          "type": "uint256"
        },
        {
          "internalType": "bytes32",
          "name": "merkleRoot",
          "type": "bytes32"
        },
        {
          "internalType": "uint256",
          "name": "pricePerToken",
          "type": "uint256"
        },
        {
          "internalType": "address",
          "name": "currency",
          "type": "address"
        }
      ],
      "stateMutability": "view",
      "type": "function"
    },
    {
      "inputs": [],
      "name": "contractURI",
      "outputs": [
        {
          "internalType": "string",
          "name": "",
          "type": "string"
        }
      ],
      "stateMutability": "view",
      "type": "function"
    },
    {
      "inputs": [
        {
          "internalType": "bytes",
          "name": "data",
          "type": "bytes"
        },
        {
          "internalType": "bytes",
          "name": "key",
          "type": "bytes"
        }
      ],
      "name": "encryptDecrypt",
      "outputs": [
        {
          "internalType": "bytes",
          "name": "result",
          "type": "bytes"
        }
      ],
      "stateMutability": "pure",
      "type": "function"
    },
    {
      "inputs": [
        {
          "internalType": "uint256",
          "name": "",
          "type": "uint256"
        }
      ],
      "name": "encryptedData",
      "outputs": [
        {
          "internalType": "bytes",
          "name": "",
          "type": "bytes"
        }
      ],
      "stateMutability": "view",
      "type": "function"
    },
    {
      "inputs": [
        {
          "internalType": "uint256",
          "name": "tokenId",
          "type": "uint256"
        }
      ],
      "name": "getApproved",
      "outputs": [
        {
          "internalType": "address",
          "name": "",
          "type": "address"
        }
      ],
      "stateMutability": "view",
      "type": "function"
    },
    {
      "inputs": [],
      "name": "getBaseURICount",
      "outputs": [
        {
          "internalType": "uint256",
          "name": "",
          "type": "uint256"
        }
      ],
      "stateMutability": "view",
      "type": "function"
    },
    {
      "inputs": [
        {
          "internalType": "uint256",
          "name": "_index",
          "type": "uint256"
        }
      ],
      "name": "getBatchIdAtIndex",
      "outputs": [
        {
          "internalType": "uint256",
          "name": "",
          "type": "uint256"
        }
      ],
      "stateMutability": "view",
      "type": "function"
    },
    {
      "inputs": [
        {
          "internalType": "address",
          "name": "_claimer",
          "type": "address"
        }
      ],
      "name": "getClaimTimestamp",
      "outputs": [
        {
          "internalType": "uint256",
          "name": "lastClaimedAt",
          "type": "uint256"
        },
        {
          "internalType": "uint256",
          "name": "nextValidClaimTimestamp",
          "type": "uint256"
        }
      ],
      "stateMutability": "view",
      "type": "function"
    },
    {
      "inputs": [],
      "name": "getDefaultRoyaltyInfo",
      "outputs": [
        {
          "internalType": "address",
          "name": "",
          "type": "address"
        },
        {
          "internalType": "uint16",
          "name": "",
          "type": "uint16"
        }
      ],
      "stateMutability": "view",
      "type": "function"
    },
    {
      "inputs": [],
      "name": "getPlatformFeeInfo",
      "outputs": [
        {
          "internalType": "address",
          "name": "",
          "type": "address"
        },
        {
          "internalType": "uint16",
          "name": "",
          "type": "uint16"
        }
      ],
      "stateMutability": "view",
      "type": "function"
    },
    {
      "inputs": [
        {
          "internalType": "uint256",
          "name": "_batchId",
          "type": "uint256"
        },
        {
          "internalType": "bytes",
          "name": "_key",
          "type": "bytes"
        }
      ],
      "name": "getRevealURI",
      "outputs": [
        {
          "internalType": "string",
          "name": "revealedURI",
          "type": "string"
        }
      ],
      "stateMutability": "view",
      "type": "function"
    },
    {
      "inputs": [
        {
          "internalType": "uint256",
          "name": "_tokenId",
          "type": "uint256"
        }
      ],
      "name": "getRoyaltyInfoForToken",
      "outputs": [
        {
          "internalType": "address",
          "name": "",
          "type": "address"
        },
        {
          "internalType": "uint16",
          "name": "",
          "type": "uint16"
        }
      ],
      "stateMutability": "view",
      "type": "function"
    },
    {
      "inputs": [
        {
          "internalType": "address",
          "name": "owner",
          "type": "address"
        },
        {
          "internalType": "address",
          "name": "operator",
          "type": "address"
        }
      ],
      "name": "isApprovedForAll",
      "outputs": [
        {
          "internalType": "bool",
          "name": "",
          "type": "bool"
        }
      ],
      "stateMutability": "view",
      "type": "function"
    },
    {
      "inputs": [
        {
          "internalType": "uint256",
          "name": "_batchId",
          "type": "uint256"
        }
      ],
      "name": "isEncryptedBatch",
      "outputs": [
        {
          "internalType": "bool",
          "name": "",
          "type": "bool"
        }
      ],
      "stateMutability": "view",
      "type": "function"
    },
    {
      "inputs": [
        {
          "internalType": "uint256",
          "name": "_amount",
          "type": "uint256"
        },
        {
          "internalType": "string",
          "name": "_baseURIForTokens",
          "type": "string"
        },
        {
          "internalType": "bytes",
          "name": "_data",
          "type": "bytes"
        }
      ],
      "name": "lazyMint",
      "outputs": [
        {
          "internalType": "uint256",
          "name": "batchId",
          "type": "uint256"
        }
      ],
      "stateMutability": "nonpayable",
      "type": "function"
    },
    {
      "inputs": [
        {
          "internalType": "bytes[]",
          "name": "data",
          "type": "bytes[]"
        }
      ],
      "name": "multicall",
      "outputs": [
        {
          "internalType": "bytes[]",
          "name": "results",
          "type": "bytes[]"
        }
      ],
      "stateMutability": "nonpayable",
      "type": "function"
    },
    {
      "inputs": [],
      "name": "name",
      "outputs": [
        {
          "internalType": "string",
          "name": "",
          "type": "string"
        }
      ],
      "stateMutability": "view",
      "type": "function"
    },
    {
      "inputs": [],
      "name": "nextTokenIdToClaim",
      "outputs": [
        {
          "internalType": "uint256",
          "name": "",
          "type": "uint256"
        }
      ],
      "stateMutability": "view",
      "type": "function"
    },
    {
      "inputs": [],
      "name": "nextTokenIdToMint",
      "outputs": [
        {
          "internalType": "uint256",
          "name": "",
          "type": "uint256"
        }
      ],
      "stateMutability": "view",
      "type": "function"
    },
    {
      "inputs": [],
      "name": "owner",
      "outputs": [
        {
          "internalType": "address",
          "name": "",
          "type": "address"
        }
      ],
      "stateMutability": "view",
      "type": "function"
    },
    {
      "inputs": [
        {
          "internalType": "uint256",
          "name": "tokenId",
          "type": "uint256"
        }
      ],
      "name": "ownerOf",
      "outputs": [
        {
          "internalType": "address",
          "name": "",
          "type": "address"
        }
      ],
      "stateMutability": "view",
      "type": "function"
    },
    {
      "inputs": [],
      "name": "primarySaleRecipient",
      "outputs": [
        {
          "internalType": "address",
          "name": "",
          "type": "address"
        }
      ],
      "stateMutability": "view",
      "type": "function"
    },
    {
      "inputs": [
        {
          "internalType": "uint256",
          "name": "_index",
          "type": "uint256"
        },
        {
          "internalType": "bytes",
          "name": "_key",
          "type": "bytes"
        }
      ],
      "name": "reveal",
      "outputs": [
        {
          "internalType": "string",
          "name": "revealedURI",
          "type": "string"
        }
      ],
      "stateMutability": "nonpayable",
      "type": "function"
    },
    {
      "inputs": [
        {
          "internalType": "uint256",
          "name": "tokenId",
          "type": "uint256"
        },
        {
          "internalType": "uint256",
          "name": "salePrice",
          "type": "uint256"
        }
      ],
      "name": "royaltyInfo",
      "outputs": [
        {
          "internalType": "address",
          "name": "receiver",
          "type": "address"
        },
        {
          "internalType": "uint256",
          "name": "royaltyAmount",
          "type": "uint256"
        }
      ],
      "stateMutability": "view",
      "type": "function"
    },
    {
      "inputs": [
        {
          "internalType": "address",
          "name": "from",
          "type": "address"
        },
        {
          "internalType": "address",
          "name": "to",
          "type": "address"
        },
        {
          "internalType": "uint256",
          "name": "tokenId",
          "type": "uint256"
        }
      ],
      "name": "safeTransferFrom",
      "outputs": [],
      "stateMutability": "nonpayable",
      "type": "function"
    },
    {
      "inputs": [
        {
          "internalType": "address",
          "name": "from",
          "type": "address"
        },
        {
          "internalType": "address",
          "name": "to",
          "type": "address"
        },
        {
          "internalType": "uint256",
          "name": "tokenId",
          "type": "uint256"
        },
        {
          "internalType": "bytes",
          "name": "_data",
          "type": "bytes"
        }
      ],
      "name": "safeTransferFrom",
      "outputs": [],
      "stateMutability": "nonpayable",
      "type": "function"
    },
    {
      "inputs": [
        {
          "internalType": "address",
          "name": "operator",
          "type": "address"
        },
        {
          "internalType": "bool",
          "name": "approved",
          "type": "bool"
        }
      ],
      "name": "setApprovalForAll",
      "outputs": [],
      "stateMutability": "nonpayable",
      "type": "function"
    },
    {
      "inputs": [
        {
          "components": [
            {
              "internalType": "uint256",
              "name": "startTimestamp",
              "type": "uint256"
            },
            {
              "internalType": "uint256",
              "name": "maxClaimableSupply",
              "type": "uint256"
            },
            {
              "internalType": "uint256",
              "name": "supplyClaimed",
              "type": "uint256"
            },
            {
              "internalType": "uint256",
              "name": "quantityLimitPerTransaction",
              "type": "uint256"
            },
            {
              "internalType": "uint256",
              "name": "waitTimeInSecondsBetweenClaims",
              "type": "uint256"
            },
            {
              "internalType": "bytes32",
              "name": "merkleRoot",
              "type": "bytes32"
            },
            {
              "internalType": "uint256",
              "name": "pricePerToken",
              "type": "uint256"
            },
            {
              "internalType": "address",
              "name": "currency",
              "type": "address"
            }
          ],
          "internalType": "struct IClaimCondition.ClaimCondition",
          "name": "_condition",
          "type": "tuple"
        },
        {
          "internalType": "bool",
          "name": "_resetClaimEligibility",
          "type": "bool"
        }
      ],
      "name": "setClaimConditions",
      "outputs": [],
      "stateMutability": "nonpayable",
      "type": "function"
    },
    {
      "inputs": [
        {
          "internalType": "string",
          "name": "_uri",
          "type": "string"
        }
      ],
      "name": "setContractURI",
      "outputs": [],
      "stateMutability": "nonpayable",
      "type": "function"
    },
    {
      "inputs": [
        {
          "internalType": "address",
          "name": "_royaltyRecipient",
          "type": "address"
        },
        {
          "internalType": "uint256",
          "name": "_royaltyBps",
          "type": "uint256"
        }
      ],
      "name": "setDefaultRoyaltyInfo",
      "outputs": [],
      "stateMutability": "nonpayable",
      "type": "function"
    },
    {
      "inputs": [
        {
          "internalType": "address",
          "name": "_newOwner",
          "type": "address"
        }
      ],
      "name": "setOwner",
      "outputs": [],
      "stateMutability": "nonpayable",
      "type": "function"
    },
    {
      "inputs": [
        {
          "internalType": "address",
          "name": "_platformFeeRecipient",
          "type": "address"
        },
        {
          "internalType": "uint256",
          "name": "_platformFeeBps",
          "type": "uint256"
        }
      ],
      "name": "setPlatformFeeInfo",
      "outputs": [],
      "stateMutability": "nonpayable",
      "type": "function"
    },
    {
      "inputs": [
        {
          "internalType": "address",
          "name": "_saleRecipient",
          "type": "address"
        }
      ],
      "name": "setPrimarySaleRecipient",
      "outputs": [],
      "stateMutability": "nonpayable",
      "type": "function"
    },
    {
      "inputs": [
        {
          "internalType": "uint256",
          "name": "_tokenId",
          "type": "uint256"
        },
        {
          "internalType": "address",
          "name": "_recipient",
          "type": "address"
        },
        {
          "internalType": "uint256",
          "name": "_bps",
          "type": "uint256"
        }
      ],
      "name": "setRoyaltyInfoForToken",
      "outputs": [],
      "stateMutability": "nonpayable",
      "type": "function"
    },
    {
      "inputs": [
        {
          "internalType": "bytes4",
          "name": "interfaceId",
          "type": "bytes4"
        }
      ],
      "name": "supportsInterface",
      "outputs": [
        {
          "internalType": "bool",
          "name": "",
          "type": "bool"
        }
      ],
      "stateMutability": "view",
      "type": "function"
    },
    {
      "inputs": [],
      "name": "symbol",
      "outputs": [
        {
          "internalType": "string",
          "name": "",
          "type": "string"
        }
      ],
      "stateMutability": "view",
      "type": "function"
    },
    {
      "inputs": [
        {
          "internalType": "uint256",
          "name": "_tokenId",
          "type": "uint256"
        }
      ],
      "name": "tokenURI",
      "outputs": [
        {
          "internalType": "string",
          "name": "",
          "type": "string"
        }
      ],
      "stateMutability": "view",
      "type": "function"
    },
    {
      "inputs": [],
      "name": "totalSupply",
      "outputs": [
        {
          "internalType": "uint256",
          "name": "",
          "type": "uint256"
        }
      ],
      "stateMutability": "view",
      "type": "function"
    },
    {
      "inputs": [
        {
          "internalType": "address",
          "name": "from",
          "type": "address"
        },
        {
          "internalType": "address",
          "name": "to",
          "type": "address"
        },
        {
          "internalType": "uint256",
          "name": "tokenId",
          "type": "uint256"
        }
      ],
      "name": "transferFrom",
      "outputs": [],
      "stateMutability": "nonpayable",
      "type": "function"
    },
    {
      "inputs": [
        {
          "internalType": "address",
          "name": "_claimer",
          "type": "address"
        },
        {
          "internalType": "uint256",
          "name": "_quantity",
          "type": "uint256"
        },
        {
          "internalType": "address",
          "name": "_currency",
          "type": "address"
        },
        {
          "internalType": "uint256",
          "name": "_pricePerToken",
          "type": "uint256"
        },
        {
          "internalType": "bool",
          "name": "verifyMaxQuantityPerTransaction",
          "type": "bool"
        }
      ],
      "name": "verifyClaim",
      "outputs": [],
      "stateMutability": "view",
      "type": "function"
    },
    {
      "inputs": [
        {
          "internalType": "address",
          "name": "_claimer",
          "type": "address"
        },
        {
          "internalType": "uint256",
          "name": "_quantity",
          "type": "uint256"
        },
        {
          "components": [
            {
              "internalType": "bytes32[]",
              "name": "proof",
              "type": "bytes32[]"
            },
            {
              "internalType": "uint256",
              "name": "maxQuantityInAllowlist",
              "type": "uint256"
            }
          ],
          "internalType": "struct IDropSinglePhase.AllowlistProof",
          "name": "_allowlistProof",
          "type": "tuple"
        }
      ],
      "name": "verifyClaimMerkleProof",
      "outputs": [
        {
          "internalType": "bool",
          "name": "validMerkleProof",
          "type": "bool"
        },
        {
          "internalType": "uint256",
          "name": "merkleProofIndex",
          "type": "uint256"
        }
      ],
      "stateMutability": "view",
      "type": "function"
    }
  ],
  "bytecode": "0x60806040523480156200001157600080fd5b50604051620043f8380380620043f8833981016040819052620000349162000382565b84848484848484816002908051906020019062000053929190620001f2565b50805162000069906003906020840190620001f2565b505060008055506200007b33620000ab565b62000090836001600160801b038416620000fd565b6200009b81620001a8565b505050505050505050506200046f565b600980546001600160a01b038381166001600160a01b0319831681179093556040519116919082907f8292fce18fa69edf4db7b94ea2e58241df0ae57f97e0a6c9b29067028bf92d7690600090a35050565b612710811115620001465760405162461bcd60e51b815260206004820152600f60248201526e45786365656473206d61782062707360881b604482015260640160405180910390fd5b600a80546001600160a01b0384166001600160b01b03199091168117600160a01b61ffff851602179091556040518281527f90d7ec04bcb8978719414f82e52e4cb651db41d0e6f8cea6118c2191e6183adb9060200160405180910390a25050565b600e80546001600160a01b0319166001600160a01b0383169081179091556040517f299d17e95023f496e0ffc4909cff1a61f74bb5eb18de6f900f4155bfa1b3b33390600090a250565b828054620002009062000432565b90600052602060002090601f0160209004810192826200022457600085556200026f565b82601f106200023f57805160ff19168380011785556200026f565b828001600101855582156200026f579182015b828111156200026f57825182559160200191906001019062000252565b506200027d92915062000281565b5090565b5b808211156200027d576000815560010162000282565b634e487b7160e01b600052604160045260246000fd5b600082601f830112620002c057600080fd5b81516001600160401b0380821115620002dd57620002dd62000298565b604051601f8301601f19908116603f0116810190828211818310171562000308576200030862000298565b816040528381526020925086838588010111156200032557600080fd5b600091505b838210156200034957858201830151818301840152908201906200032a565b838211156200035b5760008385830101525b9695505050505050565b80516001600160a01b03811681146200037d57600080fd5b919050565b600080600080600060a086880312156200039b57600080fd5b85516001600160401b0380821115620003b357600080fd5b620003c189838a01620002ae565b96506020880151915080821115620003d857600080fd5b50620003e788828901620002ae565b945050620003f86040870162000365565b60608701519093506001600160801b03811681146200041657600080fd5b9150620004266080870162000365565b90509295509295909350565b600181811c908216806200044757607f821691505b602082108114156200046957634e487b7160e01b600052602260045260246000fd5b50919050565b613f79806200047f6000396000f3fe6080604052600436106102725760003560e01c806377312a9e1161014f578063b24f2d39116100c1578063d45573f61161007a578063d45573f6146107b8578063d637ed59146107e3578063e715032214610863578063e8a3d48514610883578063e985e9c514610898578063ffbb7a13146108e157600080fd5b8063b24f2d39146106d8578063b67875ce14610703578063b88d4fde14610738578063c87b56dd14610758578063ce80564214610778578063d37c353b1461079857600080fd5b80639fc4d68f116101135780639fc4d68f14610616578063a05112fc14610636578063a22cb46514610656578063a72e157d14610676578063ac9650d814610696578063acd083f8146106c357600080fd5b806377312a9e146105835780638da5cb5b146105a3578063938e3d7b146105c157806395d89b41146105e15780639bcf7a15146105f657600080fd5b80633b1475a7116101e85780635ab31c1a116101ac5780635ab31c1a146104db578063600dd5ea146104ee5780636352211e1461050e57806363b45e2d1461052e5780636f4f28371461054357806370a082311461056357600080fd5b80633b1475a71461042457806342842e0e1461043957806342966c6814610459578063492e224b146104795780634cc157df1461049957600080fd5b806313af40351161023a57806313af40351461034257806318160ddd146103625780631e7ac4881461038557806323b872dd146103a55780632419f51b146103c55780632a55205a146103e557600080fd5b806301ffc9a71461027757806306fdde03146102ac578063079fe40e146102ce578063081812fc14610300578063095ea7b314610320575b600080fd5b34801561028357600080fd5b506102976102923660046132f1565b610918565b60405190151581526020015b60405180910390f35b3480156102b857600080fd5b506102c1610985565b6040516102a39190613366565b3480156102da57600080fd5b50600e546001600160a01b03165b6040516001600160a01b0390911681526020016102a3565b34801561030c57600080fd5b506102e861031b366004613379565b610a17565b34801561032c57600080fd5b5061034061033b3660046133ae565b610a5b565b005b34801561034e57600080fd5b5061034061035d3660046133d8565b610ae2565b34801561036e57600080fd5b50600154600054035b6040519081526020016102a3565b34801561039157600080fd5b506103406103a03660046133ae565b610b1b565b3480156103b157600080fd5b506103406103c03660046133f3565b610b4d565b3480156103d157600080fd5b506103776103e0366004613379565b610b58565b3480156103f157600080fd5b5061040561040036600461342f565b610bc6565b604080516001600160a01b0390931683526020830191909152016102a3565b34801561043057600080fd5b50600f54610377565b34801561044557600080fd5b506103406104543660046133f3565b610c03565b34801561046557600080fd5b50610340610474366004613379565b610c1e565b34801561048557600080fd5b50610297610494366004613379565b610c29565b3480156104a557600080fd5b506104b96104b4366004613379565b610c4f565b604080516001600160a01b03909316835261ffff9091166020830152016102a3565b6103406104e9366004613534565b610cba565b3480156104fa57600080fd5b506103406105093660046133ae565b610dec565b34801561051a57600080fd5b506102e8610529366004613379565b610e1a565b34801561053a57600080fd5b50600c54610377565b34801561054f57600080fd5b5061034061055e3660046133d8565b610e2c565b34801561056f57600080fd5b5061037761057e3660046133d8565b610e59565b34801561058f57600080fd5b5061034061059e3660046135d8565b610ea7565b3480156105af57600080fd5b506009546001600160a01b03166102e8565b3480156105cd57600080fd5b506103406105dc366004613619565b611066565b3480156105ed57600080fd5b506102c1611093565b34801561060257600080fd5b50610340610611366004613661565b6110a2565b34801561062257600080fd5b506102c16106313660046136ce565b6110d1565b34801561064257600080fd5b506102c1610651366004613379565b611252565b34801561066257600080fd5b50610340610671366004613719565b6112ec565b34801561068257600080fd5b50610340610691366004613745565b611382565b3480156106a257600080fd5b506106b66106b13660046137a0565b61155d565b6040516102a39190613814565b3480156106cf57600080fd5b50600054610377565b3480156106e457600080fd5b50600a546001600160a01b03811690600160a01b900461ffff166104b9565b34801561070f57600080fd5b5061072361071e3660046133d8565b611651565b604080519283526020830191909152016102a3565b34801561074457600080fd5b50610340610753366004613876565b61168e565b34801561076457600080fd5b506102c1610773366004613379565b6116d8565b34801561078457600080fd5b506102c16107933660046136ce565b611747565b3480156107a457600080fd5b506103776107b33660046138dd565b6117ea565b3480156107c457600080fd5b50601c546001600160a01b03811690600160a01b900461ffff166104b9565b3480156107ef57600080fd5b5060115460125460135460145460155460165460175460185461081f97969594939291906001600160a01b031688565b604080519889526020890197909752958701949094526060860192909252608085015260a084015260c08301526001600160a01b031660e0820152610100016102a3565b34801561086f57600080fd5b506102c161087e366004613956565b611882565b34801561088f57600080fd5b506102c16118f7565b3480156108a457600080fd5b506102976108b33660046139b1565b6001600160a01b03918216600090815260076020908152604080832093909416825291909152205460ff1690565b3480156108ed57600080fd5b506109016108fc3660046139e4565b611904565b6040805192151583526020830191909152016102a3565b60006301ffc9a760e01b6001600160e01b03198316148061094957506380ac58cd60e01b6001600160e01b03198316145b806109645750635b5e139f60e01b6001600160e01b03198316145b8061097f57506001600160e01b0319821663152a902d60e11b145b92915050565b60606002805461099490613a3a565b80601f01602080910402602001604051908101604052809291908181526020018280546109c090613a3a565b8015610a0d5780601f106109e257610100808354040283529160200191610a0d565b820191906000526020600020905b8154815290600101906020018083116109f057829003601f168201915b5050505050905090565b6000610a2282611af7565b610a3f576040516333d1c03960e21b815260040160405180910390fd5b506000908152600660205260409020546001600160a01b031690565b6000610a6682610e1a565b9050806001600160a01b0316836001600160a01b03161415610a9b5760405163250fdee360e21b815260040160405180910390fd5b336001600160a01b03821614610ad257610ab581336108b3565b610ad2576040516367d9dca160e11b815260040160405180910390fd5b610add838383611b22565b505050565b610aea611b7e565b610b0f5760405162461bcd60e51b8152600401610b0690613a6f565b60405180910390fd5b610b1881611bab565b50565b610b23611b7e565b610b3f5760405162461bcd60e51b8152600401610b0690613a6f565b610b498282611bfd565b5050565b610add838383611c8b565b6000610b63600c5490565b8210610ba15760405162461bcd60e51b815260206004820152600d60248201526c092dcecc2d8d2c840d2dcc8caf609b1b6044820152606401610b06565b600c8281548110610bb457610bb4613a97565b90600052602060002001549050919050565b600080600080610bd586610c4f565b90945084925061ffff169050612710610bee8287613ac3565b610bf89190613af8565b925050509250929050565b610add8383836040518060200160405280600081525061168e565b610b18816001611e66565b60008181526010602052604081208054829190610c4590613a3a565b9050119050919050565b6000818152600b60209081526040808320815180830190925280546001600160a01b031680835260019091015492820192909252829115610c965780516020820151610cb0565b600a546001600160a01b03811690600160a01b900461ffff165b9250925050915091565b610cc8868686868686612019565b601954600080610cd9338987611904565b915091506000856020013560001480610cf25750601654155b9050610d01338a8a8a85611382565b828015610d12575060008660200135115b15610d41576000848152601b60209081526040808320600886901c845290915290208054600160ff85161b1790555b8860116002016000828254610d569190613b0c565b90915550506000848152601a602090815260408083203384529091528120429055610d83908a8a8a6120b5565b6000610d8f8b8b61216b565b9050806001600160a01b038c16336001600160a01b03167fff097c7d8b1957a4ff09ef1361b5fb54dcede3941ba836d0beb9d10bec725de68d604051610dd791815260200190565b60405180910390a45050505050505050505050565b610df4611b7e565b610e105760405162461bcd60e51b8152600401610b0690613a6f565b610b498282612178565b6000610e25826121f5565b5192915050565b610e34611b7e565b610e505760405162461bcd60e51b8152600401610b0690613a6f565b610b188161230f565b60006001600160a01b038216610e82576040516323d3ad8160e21b815260040160405180910390fd5b506001600160a01b03166000908152600560205260409020546001600160401b031690565b610eaf611b7e565b610ecb5760405162461bcd60e51b8152600401610b0690613a6f565b6019546013548215610f1a575060003360405160609190911b6bffffffffffffffffffffffff191660208201524360348201526054016040516020818303038152906040528051906020012091505b8360200135811115610f635760405162461bcd60e51b81526020600482015260126024820152711b585e081cdd5c1c1b1e4818db185a5b595960721b6044820152606401610b06565b604051806101000160405280856000013581526020018560200135815260200182815260200185606001358152602001856080013581526020018560a0013581526020018560c0013581526020018560e0016020810190610fc491906133d8565b6001600160a01b03908116909152815160115560208201516012556040808301516013556060830151601455608083015160155560a083015160165560c083015160175560e090920151601880546001600160a01b031916919092161790556019839055517f583ecce39d40d7b7653fd2cb1cdc19aa03714482ffd00fafa242355cdcd79080906110589086908690613b24565b60405180910390a150505050565b61106e611b7e565b61108a5760405162461bcd60e51b8152600401610b0690613a6f565b610b1881612359565b60606003805461099490613a3a565b6110aa611b7e565b6110c65760405162461bcd60e51b8152600401610b0690613a6f565b610add83838361243b565b6000838152601060205260408120805460609291906110ef90613a3a565b80601f016020809104026020016040519081016040528092919081815260200182805461111b90613a3a565b80156111685780601f1061113d57610100808354040283529160200191611168565b820191906000526020600020905b81548152906001019060200180831161114b57829003601f168201915b505050505090508051600014156111b55760405162461bcd60e51b8152602060048201526011602482015270139bdd1a1a5b99c81d1bc81c995d99585b607a1b6044820152606401610b06565b600080828060200190518101906111cc9190613b92565b915091506111db828787611882565b935080848787466040516020016111f59493929190613c12565b60405160208183030381529060405280519060200120146112485760405162461bcd60e51b815260206004820152600d60248201526c496e636f7272656374206b657960981b6044820152606401610b06565b5050509392505050565b6010602052600090815260409020805461126b90613a3a565b80601f016020809104026020016040519081016040528092919081815260200182805461129790613a3a565b80156112e45780601f106112b9576101008083540402835291602001916112e4565b820191906000526020600020905b8154815290600101906020018083116112c757829003601f168201915b505050505081565b6001600160a01b0382163314156113165760405163b06307db60e01b815260040160405180910390fd5b3360008181526007602090815260408083206001600160a01b03871680855290835292819020805460ff191686151590811790915590519081529192917f17307eab39ab6107e8899845ad3d59bd9653f200f220920489ca2b5937696c31910160405180910390a35050565b604080516101008101825260115481526012546020820152601354918101919091526014546060820152601554608082015260165460a082015260175460c08201526018546001600160a01b0390811660e083018190529085161415806113ed57508060c001518314155b1561143a5760405162461bcd60e51b815260206004820152601960248201527f496e76616c6964207072696365206f722063757272656e6379000000000000006044820152606401610b06565b84158061145257508180156114525750806060015185115b156114925760405162461bcd60e51b815260206004820152601060248201526f496e76616c6964207175616e7469747960801b6044820152606401610b06565b80602001518582604001516114a79190613b0c565b11156114ea5760405162461bcd60e51b815260206004820152601260248201527165786365656473206d617820737570706c7960701b6044820152606401610b06565b6000806114f688611651565b9150915042836000015111806115155750811580159061151557508042105b156115535760405162461bcd60e51b815260206004820152600e60248201526d18d85b9d0818db185a5b481e595d60921b6044820152606401610b06565b5050505050505050565b6060816001600160401b0381111561157757611577613469565b6040519080825280602002602001820160405280156115aa57816020015b60608152602001906001900390816115955790505b50905060005b8281101561164a5761161a308585848181106115ce576115ce613a97565b90506020028101906115e09190613c3b565b8080601f0160208091040260200160405190810160405280939291908181526020018383808284376000920191909152506124e292505050565b82828151811061162c5761162c613a97565b6020026020010181905250808061164290613c81565b9150506115b0565b5092915050565b6019546000908152601a602090815260408083206001600160a01b038516845290915290205460155481018181101561168957506000195b915091565b611699848484611c8b565b6001600160a01b0383163b156116d2576116b58484848461250e565b6116d2576040516368d2bf6b60e11b815260040160405180910390fd5b50505050565b606060006116e583612606565b50905060006116f38461270b565b90506116fe82610c29565b1561172c57806040516020016117149190613c9c565b60405160208183030381529060405292505050919050565b806117368561286c565b604051602001611714929190613cc1565b6060611751611b7e565b61176d5760405162461bcd60e51b8152600401610b0690613a6f565b600061177885610b58565b90506117858185856110d1565b91506117a08160405180602001604052806000815250612969565b6117aa8183612988565b847f6df1d8db2a036436ffe0b2d1833f2c5f1e624818dfce2578c0faa4b83ef9998d836040516117da9190613366565b60405180910390a2509392505050565b6000811561186b5760008061180184860186613cf0565b91509150815160001415801561181657508015155b156118685761186888600f5461182c9190613b0c565b86868080601f01602080910402602001604051908101604052809392919081815260200183838082843760009201919091525061296992505050565b50505b61187886868686866129a7565b9695505050505050565b8251604080518083016020019091528181529060005b818110156118ee5760008585836040516020016118b793929190613d34565b60408051601f198184030181529190528051602091820120888401820151188584018201526118e7915082613b0c565b9050611898565b50509392505050565b6008805461126b90613a3a565b604080516101008101825260115481526012546020820152601354918101919091526014546060820152601554608082015260165460a0820181905260175460c08301526018546001600160a01b031660e0830152600091829115611aee576119ec6119708580613d46565b8080602002602001604051908101604052809392919081815260200183836020028082843760009201919091525050505060a08301516040516bffffffffffffffffffffffff1960608b901b16602080830191909152880135603482015260540160405160208183030381529060405280519060200120612abc565b909350915082611a315760405162461bcd60e51b815260206004820152601060248201526f1b9bdd081a5b88185b1b1bdddb1a5cdd60821b6044820152606401610b06565b6019546000908152601b60209081526040808320600886901c8452909152902054600160ff84161b1615611a975760405162461bcd60e51b815260206004820152600d60248201526c1c1c9bdbd98818db185a5b5959609a1b6044820152606401610b06565b602084013515801590611aad5750836020013585115b15611aee5760405162461bcd60e51b815260206004820152601160248201527024b73b30b634b21038ba3c90383937b7b360791b6044820152606401610b06565b50935093915050565b600080548210801561097f575050600090815260046020526040902054600160e01b900460ff161590565b60008281526006602052604080822080546001600160a01b0319166001600160a01b0387811691821790925591518593918516917f8c5be1e5ebec7d5bd14f71427d1e84f3dd0314c0f7b2291e5b200ac8c7c3b92591a4505050565b6000611b926009546001600160a01b031690565b6001600160a01b0316336001600160a01b031614905090565b600980546001600160a01b038381166001600160a01b0319831681179093556040519116919082907f8292fce18fa69edf4db7b94ea2e58241df0ae57f97e0a6c9b29067028bf92d7690600090a35050565b612710811115611c1f5760405162461bcd60e51b8152600401610b0690613d8f565b601c80546001600160b01b031916600160a01b61ffff8416026001600160a01b031916176001600160a01b0384169081179091556040518281527fe2497bd806ec41a6e0dd992c29a72efc0ef8fec9092d1978fd4a1e00b2f18304906020015b60405180910390a25050565b6000611c96826121f5565b9050836001600160a01b031681600001516001600160a01b031614611ccd5760405162a1148160e81b815260040160405180910390fd5b6000336001600160a01b0386161480611ceb5750611ceb85336108b3565b80611d06575033611cfb84610a17565b6001600160a01b0316145b905080611d2657604051632ce44b5f60e11b815260040160405180910390fd5b6001600160a01b038416611d4d57604051633a954ecd60e21b815260040160405180910390fd5b611d5960008487611b22565b6001600160a01b038581166000908152600560209081526040808320805467ffffffffffffffff198082166001600160401b0392831660001901831617909255898616808652838620805493841693831660019081018416949094179055898652600490945282852080546001600160e01b031916909417600160a01b42909216919091021783558701808452922080549193909116611e2d576000548214611e2d57805460208601516001600160401b0316600160a01b026001600160e01b03199091166001600160a01b038a16171781555b50505082846001600160a01b0316866001600160a01b0316600080516020613f2483398151915260405160405180910390a45050505050565b6000611e71836121f5565b80519091508215611ed7576000336001600160a01b0383161480611e9a5750611e9a82336108b3565b80611eb5575033611eaa86610a17565b6001600160a01b0316145b905080611ed557604051632ce44b5f60e11b815260040160405180910390fd5b505b611ee360008583611b22565b6001600160a01b0380821660008181526005602090815260408083208054600160801b6000196001600160401b0380841691909101811667ffffffffffffffff198416811783900482166001908101831690930277ffffffffffffffff0000000000000000ffffffffffffffff19909416179290921783558b86526004909452828520805460ff60e01b1942909316600160a01b026001600160e01b03199091169097179690961716600160e01b178555918901808452922080549194909116611fe1576000548214611fe157805460208701516001600160401b0316600160a01b026001600160e01b03199091166001600160a01b038716171781555b5050604051869250600091506001600160a01b03841690600080516020613f24833981519152908390a4505060018054810190555050565b33321461204e5760405162461bcd60e51b81526020600482015260036024820152621093d560ea1b6044820152606401610b06565b600f548560005461205f9190613b0c565b11156120ad5760405162461bcd60e51b815260206004820152601860248201527f4e6f7420656e6f756768206d696e74656420746f6b656e7300000000000000006044820152606401610b06565b505050505050565b806120bf576116d2565b60006120cb8285613ac3565b90506001600160a01b03831673eeeeeeeeeeeeeeeeeeeeeeeeeeeeeeeeeeeeeeee1415612139578034146121395760405162461bcd60e51b81526020600482015260156024820152744d7573742073656e6420746f74616c20707269636560581b6044820152606401610b06565b60006001600160a01b03861615612150578561215d565b600e546001600160a01b03165b90506120ad84338385612b8a565b60005461097f8383612bd4565b61271081111561219a5760405162461bcd60e51b8152600401610b0690613d8f565b600a80546001600160a01b0384166001600160b01b03199091168117600160a01b61ffff851602179091556040518281527f90d7ec04bcb8978719414f82e52e4cb651db41d0e6f8cea6118c2191e6183adb90602001611c7f565b6040805160608101825260008082526020820181905291810191909152816000548110156122f657600081815260046020908152604091829020825160608101845290546001600160a01b0381168252600160a01b81046001600160401b031692820192909252600160e01b90910460ff161515918101829052906122f45780516001600160a01b03161561228b579392505050565b5060001901600081815260046020908152604091829020825160608101845290546001600160a01b038116808352600160a01b82046001600160401b031693830193909352600160e01b900460ff16151592810192909252156122ef579392505050565b61228b565b505b604051636f96cda160e11b815260040160405180910390fd5b600e80546001600160a01b0319166001600160a01b0383169081179091556040517f299d17e95023f496e0ffc4909cff1a61f74bb5eb18de6f900f4155bfa1b3b33390600090a250565b60006008805461236890613a3a565b80601f016020809104026020016040519081016040528092919081815260200182805461239490613a3a565b80156123e15780601f106123b6576101008083540402835291602001916123e1565b820191906000526020600020905b8154815290600101906020018083116123c457829003601f168201915b505085519394506123fd93600893506020870192509050613242565b507fc9c7c3fe08b88b4df9d4d47ef47d2c43d55c025a0ba88ca442580ed9e7348a16818360405161242f929190613db8565b60405180910390a15050565b61271081111561245d5760405162461bcd60e51b8152600401610b0690613d8f565b6040805180820182526001600160a01b0384811680835260208084018681526000898152600b8352869020945185546001600160a01b031916941693909317845591516001909301929092559151838152909185917f7365cf4122f072a3365c20d54eff9b38d73c096c28e1892ec8f5b0e403a0f12d910160405180910390a3505050565b60606125078383604051806060016040528060278152602001613efd60279139612bee565b9392505050565b604051630a85bd0160e11b81526000906001600160a01b0385169063150b7a0290612543903390899088908890600401613de6565b602060405180830381600087803b15801561255d57600080fd5b505af192505050801561258d575060408051601f3d908101601f1916820190925261258a91810190613e19565b60015b6125e8573d8080156125bb576040519150601f19603f3d011682016040523d82523d6000602084013e6125c0565b606091505b5080516125e0576040516368d2bf6b60e11b815260040160405180910390fd5b805181602001fd5b6001600160e01b031916630a85bd0160e11b1490505b949350505050565b6000806000612614600c5490565b90506000600c80548060200260200160405190810160405280929190818152602001828054801561266457602002820191906000526020600020905b815481526020019060010190808311612650575b5050505050905060005b828110156126d05781818151811061268857612688613a97565b60200260200101518610156126be578093508181815181106126ac576126ac613a97565b60200260200101519450505050915091565b6126c9600182613b0c565b905061266e565b5060405162461bcd60e51b815260206004820152600f60248201526e125b9d985b1a59081d1bdad95b9259608a1b6044820152606401610b06565b60606000612718600c5490565b90506000600c80548060200260200160405190810160405280929190818152602001828054801561276857602002820191906000526020600020905b815481526020019060010190808311612754575b5050505050905060005b828110156126d05781818151811061278c5761278c613a97565b602002602001015185101561285a57600d60008383815181106127b1576127b1613a97565b6020026020010151815260200190815260200160002080546127d290613a3a565b80601f01602080910402602001604051908101604052809291908181526020018280546127fe90613a3a565b801561284b5780601f106128205761010080835404028352916020019161284b565b820191906000526020600020905b81548152906001019060200180831161282e57829003601f168201915b50505050509350505050919050565b612865600182613b0c565b9050612772565b6060816128905750506040805180820190915260018152600360fc1b602082015290565b8160005b81156128ba57806128a481613c81565b91506128b39050600a83613af8565b9150612894565b6000816001600160401b038111156128d4576128d4613469565b6040519080825280601f01601f1916602001820160405280156128fe576020820181803683370190505b5090505b84156125fe57612913600183613e36565b9150612920600a86613e4d565b61292b906030613b0c565b60f81b81838151811061294057612940613a97565b60200101906001600160f81b031916908160001a905350612962600a86613af8565b9450612902565b60008281526010602090815260409091208251610add92840190613242565b6000828152600d602090815260409091208251610add92840190613242565b60006129b1611b7e565b6129cd5760405162461bcd60e51b8152600401610b0690613a6f565b85612a0d5760405162461bcd60e51b815260206004820152601060248201526f4d696e74696e67203020746f6b656e7360801b6044820152606401610b06565b6000600f549050612a55818888888080601f016020809104026020016040519081016040528093929190818152602001838380828437600092019190915250612cc192505050565b600f919091559150807f2a0365091ef1a40953c670dce28177e37520648a6fdc91506bffac0ab045570d6001612a8b8a84613b0c565b612a959190613e36565b88888888604051612aaa959493929190613e8a565b60405180910390a25095945050505050565b6000808281805b8751811015612b7e57612ad7600283613ac3565b91506000888281518110612aed57612aed613a97565b60200260200101519050808411612b2f576040805160208101869052908101829052606001604051602081830303815290604052805190602001209350612b6b565b6040805160208101839052908101859052606001604051602081830303815290604052805190602001209350600183612b689190613b0c565b92505b5080612b7681613c81565b915050612ac3565b50941495939450505050565b80612b94576116d2565b6001600160a01b03841673eeeeeeeeeeeeeeeeeeeeeeeeeeeeeeeeeeeeeeee1415612bc857612bc38282612d25565b6116d2565b6116d284848484612dc8565b610b49828260405180602001604052806000815250612e21565b60606001600160a01b0384163b612c565760405162461bcd60e51b815260206004820152602660248201527f416464726573733a2064656c65676174652063616c6c20746f206e6f6e2d636f6044820152651b9d1c9858dd60d21b6064820152608401610b06565b600080856001600160a01b031685604051612c719190613ec3565b600060405180830381855af49150503d8060008114612cac576040519150601f19603f3d011682016040523d82523d6000602084013e612cb1565b606091505b5091509150611878828286612fc1565b600080612cce8486613b0c565b600c8054600181019091557fdf6966c971051c3d54ec59162606531493a51404a002842f56009d7e5cf4a8c7018190556000818152600d602090815260409091208551929450849350611aee929091860190613242565b6000826001600160a01b03168260405160006040518083038185875af1925050503d8060008114612d72576040519150601f19603f3d011682016040523d82523d6000602084013e612d77565b606091505b5050905080610add5760405162461bcd60e51b815260206004820152601c60248201527f6e617469766520746f6b656e207472616e73666572206661696c6564000000006044820152606401610b06565b816001600160a01b0316836001600160a01b03161415612de7576116d2565b6001600160a01b038316301415612e0c57612bc36001600160a01b0385168383612ffa565b6116d26001600160a01b03851684848461305d565b6000546001600160a01b038416612e4a57604051622e076360e81b815260040160405180910390fd5b82612e685760405163b562e8dd60e01b815260040160405180910390fd5b6001600160a01b038416600081815260056020908152604080832080546fffffffffffffffffffffffffffffffff1981166001600160401b038083168b0181169182176801000000000000000067ffffffffffffffff1990941690921783900481168b01811690920217909155858452600490925290912080546001600160e01b0319168317600160a01b42909316929092029190911790558190818501903b15612f7e575b60405182906001600160a01b03881690600090600080516020613f24833981519152908290a4612f47600087848060010195508761250e565b612f64576040516368d2bf6b60e11b815260040160405180910390fd5b808210612f0e578260005414612f7957600080fd5b612fb1565b5b6040516001830192906001600160a01b03881690600090600080516020613f24833981519152908290a4808210612f7f575b5060009081556116d29085838684565b60608315612fd0575081612507565b825115612fe05782518084602001fd5b8160405162461bcd60e51b8152600401610b069190613366565b6040516001600160a01b038316602482015260448101829052610add90849063a9059cbb60e01b906064015b60408051601f198184030181529190526020810180516001600160e01b03166001600160e01b031990931692909217909152613095565b6040516001600160a01b03808516602483015283166044820152606481018290526116d29085906323b872dd60e01b90608401613026565b60006130ea826040518060400160405280602081526020017f5361666545524332303a206c6f772d6c6576656c2063616c6c206661696c6564815250856001600160a01b03166131679092919063ffffffff16565b805190915015610add57808060200190518101906131089190613edf565b610add5760405162461bcd60e51b815260206004820152602a60248201527f5361666545524332303a204552433230206f7065726174696f6e20646964206e6044820152691bdd081cdd58d8d9595960b21b6064820152608401610b06565b60606125fe8484600085856001600160a01b0385163b6131c95760405162461bcd60e51b815260206004820152601d60248201527f416464726573733a2063616c6c20746f206e6f6e2d636f6e74726163740000006044820152606401610b06565b600080866001600160a01b031685876040516131e59190613ec3565b60006040518083038185875af1925050503d8060008114613222576040519150601f19603f3d011682016040523d82523d6000602084013e613227565b606091505b5091509150613237828286612fc1565b979650505050505050565b82805461324e90613a3a565b90600052602060002090601f01602090048101928261327057600085556132b6565b82601f1061328957805160ff19168380011785556132b6565b828001600101855582156132b6579182015b828111156132b657825182559160200191906001019061329b565b506132c29291506132c6565b5090565b5b808211156132c257600081556001016132c7565b6001600160e01b031981168114610b1857600080fd5b60006020828403121561330357600080fd5b8135612507816132db565b60005b83811015613329578181015183820152602001613311565b838111156116d25750506000910152565b6000815180845261335281602086016020860161330e565b601f01601f19169290920160200192915050565b602081526000612507602083018461333a565b60006020828403121561338b57600080fd5b5035919050565b80356001600160a01b03811681146133a957600080fd5b919050565b600080604083850312156133c157600080fd5b6133ca83613392565b946020939093013593505050565b6000602082840312156133ea57600080fd5b61250782613392565b60008060006060848603121561340857600080fd5b61341184613392565b925061341f60208501613392565b9150604084013590509250925092565b6000806040838503121561344257600080fd5b50508035926020909101359150565b60006040828403121561346357600080fd5b50919050565b634e487b7160e01b600052604160045260246000fd5b604051601f8201601f191681016001600160401b03811182821017156134a7576134a7613469565b604052919050565b60006001600160401b038211156134c8576134c8613469565b50601f01601f191660200190565b60006134e96134e4846134af565b61347f565b90508281528383830111156134fd57600080fd5b828260208301376000602084830101529392505050565b600082601f83011261352557600080fd5b612507838335602085016134d6565b60008060008060008060c0878903121561354d57600080fd5b61355687613392565b95506020870135945061356b60408801613392565b93506060870135925060808701356001600160401b038082111561358e57600080fd5b61359a8a838b01613451565b935060a08901359150808211156135b057600080fd5b506135bd89828a01613514565b9150509295509295509295565b8015158114610b1857600080fd5b6000808284036101208112156135ed57600080fd5b610100808212156135fd57600080fd5b849350830135905061360e816135ca565b809150509250929050565b60006020828403121561362b57600080fd5b81356001600160401b0381111561364157600080fd5b8201601f8101841361365257600080fd5b6125fe848235602084016134d6565b60008060006060848603121561367657600080fd5b8335925061341f60208501613392565b60008083601f84011261369857600080fd5b5081356001600160401b038111156136af57600080fd5b6020830191508360208285010111156136c757600080fd5b9250929050565b6000806000604084860312156136e357600080fd5b8335925060208401356001600160401b0381111561370057600080fd5b61370c86828701613686565b9497909650939450505050565b6000806040838503121561372c57600080fd5b61373583613392565b9150602083013561360e816135ca565b600080600080600060a0868803121561375d57600080fd5b61376686613392565b94506020860135935061377b60408701613392565b9250606086013591506080860135613792816135ca565b809150509295509295909350565b600080602083850312156137b357600080fd5b82356001600160401b03808211156137ca57600080fd5b818501915085601f8301126137de57600080fd5b8135818111156137ed57600080fd5b8660208260051b850101111561380257600080fd5b60209290920196919550909350505050565b6000602080830181845280855180835260408601915060408160051b870101925083870160005b8281101561386957603f1988860301845261385785835161333a565b9450928501929085019060010161383b565b5092979650505050505050565b6000806000806080858703121561388c57600080fd5b61389585613392565b93506138a360208601613392565b92506040850135915060608501356001600160401b038111156138c557600080fd5b6138d187828801613514565b91505092959194509250565b6000806000806000606086880312156138f557600080fd5b8535945060208601356001600160401b038082111561391357600080fd5b61391f89838a01613686565b9096509450604088013591508082111561393857600080fd5b5061394588828901613686565b969995985093965092949392505050565b60008060006040848603121561396b57600080fd5b83356001600160401b038082111561398257600080fd5b61398e87838801613514565b945060208601359150808211156139a457600080fd5b5061370c86828701613686565b600080604083850312156139c457600080fd5b6139cd83613392565b91506139db60208401613392565b90509250929050565b6000806000606084860312156139f957600080fd5b613a0284613392565b92506020840135915060408401356001600160401b03811115613a2457600080fd5b613a3086828701613451565b9150509250925092565b600181811c90821680613a4e57607f821691505b6020821081141561346357634e487b7160e01b600052602260045260246000fd5b6020808252600e908201526d139bdd08185d5d1a1bdc9a5e995960921b604082015260600190565b634e487b7160e01b600052603260045260246000fd5b634e487b7160e01b600052601160045260246000fd5b6000816000190483118215151615613add57613add613aad565b500290565b634e487b7160e01b600052601260045260246000fd5b600082613b0757613b07613ae2565b500490565b60008219821115613b1f57613b1f613aad565b500190565b823581526020808401359082015260408084013590820152606080840135908201526080808401359082015260a0808401359082015260c0808401359082015261012081016001600160a01b03613b7d60e08601613392565b1660e083015291151561010090910152919050565b60008060408385031215613ba557600080fd5b82516001600160401b03811115613bbb57600080fd5b8301601f81018513613bcc57600080fd5b8051613bda6134e4826134af565b818152866020838501011115613bef57600080fd5b613c0082602083016020860161330e565b60209590950151949694955050505050565b60008551613c24818460208a0161330e565b820184868237909301918252506020019392505050565b6000808335601e19843603018112613c5257600080fd5b8301803591506001600160401b03821115613c6c57600080fd5b6020019150368190038213156136c757600080fd5b6000600019821415613c9557613c95613aad565b5060010190565b60008251613cae81846020870161330e565b600360fc1b920191825250600101919050565b60008351613cd381846020880161330e565b835190830190613ce781836020880161330e565b01949350505050565b60008060408385031215613d0357600080fd5b82356001600160401b03811115613d1957600080fd5b613d2585828601613514565b95602094909401359450505050565b82848237909101908152602001919050565b6000808335601e19843603018112613d5d57600080fd5b8301803591506001600160401b03821115613d7757600080fd5b6020019150600581901b36038213156136c757600080fd5b6020808252600f908201526e45786365656473206d61782062707360881b604082015260600190565b604081526000613dcb604083018561333a565b8281036020840152613ddd818561333a565b95945050505050565b6001600160a01b03858116825284166020820152604081018390526080606082018190526000906118789083018461333a565b600060208284031215613e2b57600080fd5b8151612507816132db565b600082821015613e4857613e48613aad565b500390565b600082613e5c57613e5c613ae2565b500690565b81835281816020850137506000828201602090810191909152601f909101601f19169091010190565b858152606060208201526000613ea4606083018688613e61565b8281036040840152613eb7818587613e61565b98975050505050505050565b60008251613ed581846020870161330e565b9190910192915050565b600060208284031215613ef157600080fd5b8151612507816135ca56fe416464726573733a206c6f772d6c6576656c2064656c65676174652063616c6c206661696c6564ddf252ad1be2c89b69c2b068fc378daa952ba7f163c4a11628f55a4df523b3efa2646970667358221220f0e43bac2ed6c025f912eb2759b5234984c0dbb12c2ec338b11a18802931e63864736f6c63430008090033",
  "linkReferences": {},
  "deployedLinkReferences": {}
}