{
  "_format": "hh-sol-artifact-1",
  "contractName": "ERC721Drop",
  "sourceName": "@thirdweb-dev/contracts/base/ERC721Drop.sol",
  "abi": [
    {
      "inputs": [
        {
          "internalType": "string",
          "name": "_name",
          "type": "string"
        },
        {
          "internalType": "string",
          "name": "_symbol",
          "type": "string"
        },
        {
          "internalType": "address",
          "name": "_royaltyRecipient",
          "type": "address"
        },
        {
          "internalType": "uint128",
          "name": "_royaltyBps",
          "type": "uint128"
        },
        {
          "internalType": "address",
          "name": "_primarySaleRecipient",
          "type": "address"
        }
      ],
      "stateMutability": "nonpayable",
      "type": "constructor"
    },
    {
      "inputs": [],
      "name": "ApprovalCallerNotOwnerNorApproved",
      "type": "error"
    },
    {
      "inputs": [],
      "name": "ApprovalQueryForNonexistentToken",
      "type": "error"
    },
    {
      "inputs": [],
      "name": "ApprovalToCurrentOwner",
      "type": "error"
    },
    {
      "inputs": [],
      "name": "ApproveToCaller",
      "type": "error"
    },
    {
      "inputs": [],
      "name": "BalanceQueryForZeroAddress",
      "type": "error"
    },
    {
      "inputs": [],
      "name": "MintToZeroAddress",
      "type": "error"
    },
    {
      "inputs": [],
      "name": "MintZeroQuantity",
      "type": "error"
    },
    {
      "inputs": [],
      "name": "OwnerQueryForNonexistentToken",
      "type": "error"
    },
    {
      "inputs": [],
      "name": "TransferCallerNotOwnerNorApproved",
      "type": "error"
    },
    {
      "inputs": [],
      "name": "TransferFromIncorrectOwner",
      "type": "error"
    },
    {
      "inputs": [],
      "name": "TransferToNonERC721ReceiverImplementer",
      "type": "error"
    },
    {
      "inputs": [],
      "name": "TransferToZeroAddress",
      "type": "error"
    },
    {
      "inputs": [],
      "name": "URIQueryForNonexistentToken",
      "type": "error"
    },
    {
      "anonymous": false,
      "inputs": [
        {
          "indexed": true,
          "internalType": "address",
          "name": "owner",
          "type": "address"
        },
        {
          "indexed": true,
          "internalType": "address",
          "name": "approved",
          "type": "address"
        },
        {
          "indexed": true,
          "internalType": "uint256",
          "name": "tokenId",
          "type": "uint256"
        }
      ],
      "name": "Approval",
      "type": "event"
    },
    {
      "anonymous": false,
      "inputs": [
        {
          "indexed": true,
          "internalType": "address",
          "name": "owner",
          "type": "address"
        },
        {
          "indexed": true,
          "internalType": "address",
          "name": "operator",
          "type": "address"
        },
        {
          "indexed": false,
          "internalType": "bool",
          "name": "approved",
          "type": "bool"
        }
      ],
      "name": "ApprovalForAll",
      "type": "event"
    },
    {
      "anonymous": false,
      "inputs": [
        {
          "components": [
            {
              "internalType": "uint256",
              "name": "startTimestamp",
              "type": "uint256"
            },
            {
              "internalType": "uint256",
              "name": "maxClaimableSupply",
              "type": "uint256"
            },
            {
              "internalType": "uint256",
              "name": "supplyClaimed",
              "type": "uint256"
            },
            {
              "internalType": "uint256",
              "name": "quantityLimitPerTransaction",
              "type": "uint256"
            },
            {
              "internalType": "uint256",
              "name": "waitTimeInSecondsBetweenClaims",
              "type": "uint256"
            },
            {
              "internalType": "bytes32",
              "name": "merkleRoot",
              "type": "bytes32"
            },
            {
              "internalType": "uint256",
              "name": "pricePerToken",
              "type": "uint256"
            },
            {
              "internalType": "address",
              "name": "currency",
              "type": "address"
            }
          ],
          "indexed": false,
          "internalType": "struct IClaimCondition.ClaimCondition",
          "name": "condition",
          "type": "tuple"
        },
        {
          "indexed": false,
          "internalType": "bool",
          "name": "resetEligibility",
          "type": "bool"
        }
      ],
      "name": "ClaimConditionUpdated",
      "type": "event"
    },
    {
      "anonymous": false,
      "inputs": [
        {
          "indexed": false,
          "internalType": "string",
          "name": "prevURI",
          "type": "string"
        },
        {
          "indexed": false,
          "internalType": "string",
          "name": "newURI",
          "type": "string"
        }
      ],
      "name": "ContractURIUpdated",
      "type": "event"
    },
    {
      "anonymous": false,
      "inputs": [
        {
          "indexed": true,
          "internalType": "address",
          "name": "newRoyaltyRecipient",
          "type": "address"
        },
        {
          "indexed": false,
          "internalType": "uint256",
          "name": "newRoyaltyBps",
          "type": "uint256"
        }
      ],
      "name": "DefaultRoyalty",
      "type": "event"
    },
    {
      "anonymous": false,
      "inputs": [
        {
          "indexed": true,
          "internalType": "address",
          "name": "prevOwner",
          "type": "address"
        },
        {
          "indexed": true,
          "internalType": "address",
          "name": "newOwner",
          "type": "address"
        }
      ],
      "name": "OwnerUpdated",
      "type": "event"
    },
    {
      "anonymous": false,
      "inputs": [
        {
          "indexed": true,
          "internalType": "address",
          "name": "recipient",
          "type": "address"
        }
      ],
      "name": "PrimarySaleRecipientUpdated",
      "type": "event"
    },
    {
      "anonymous": false,
      "inputs": [
        {
          "indexed": true,
          "internalType": "uint256",
          "name": "tokenId",
          "type": "uint256"
        },
        {
          "indexed": true,
          "internalType": "address",
          "name": "royaltyRecipient",
          "type": "address"
        },
        {
          "indexed": false,
          "internalType": "uint256",
          "name": "royaltyBps",
          "type": "uint256"
        }
      ],
      "name": "RoyaltyForToken",
      "type": "event"
    },
    {
      "anonymous": false,
      "inputs": [
        {
          "indexed": true,
          "internalType": "uint256",
          "name": "index",
          "type": "uint256"
        },
        {
          "indexed": false,
          "internalType": "string",
          "name": "revealedURI",
          "type": "string"
        }
      ],
      "name": "TokenURIRevealed",
      "type": "event"
    },
    {
      "anonymous": false,
      "inputs": [
        {
          "indexed": true,
          "internalType": "address",
          "name": "claimer",
          "type": "address"
        },
        {
          "indexed": true,
          "internalType": "address",
          "name": "receiver",
          "type": "address"
        },
        {
          "indexed": true,
          "internalType": "uint256",
          "name": "startTokenId",
          "type": "uint256"
        },
        {
          "indexed": false,
          "internalType": "uint256",
          "name": "quantityClaimed",
          "type": "uint256"
        }
      ],
      "name": "TokensClaimed",
      "type": "event"
    },
    {
      "anonymous": false,
      "inputs": [
        {
          "indexed": true,
          "internalType": "uint256",
          "name": "startTokenId",
          "type": "uint256"
        },
        {
          "indexed": false,
          "internalType": "uint256",
          "name": "endTokenId",
          "type": "uint256"
        },
        {
          "indexed": false,
          "internalType": "string",
          "name": "baseURI",
          "type": "string"
        },
        {
          "indexed": false,
          "internalType": "bytes",
          "name": "encryptedBaseURI",
          "type": "bytes"
        }
      ],
      "name": "TokensLazyMinted",
      "type": "event"
    },
    {
      "anonymous": false,
      "inputs": [
        {
          "indexed": true,
          "internalType": "address",
          "name": "from",
          "type": "address"
        },
        {
          "indexed": true,
          "internalType": "address",
          "name": "to",
          "type": "address"
        },
        {
          "indexed": true,
          "internalType": "uint256",
          "name": "tokenId",
          "type": "uint256"
        }
      ],
      "name": "Transfer",
      "type": "event"
    },
    {
      "inputs": [
        {
          "internalType": "address",
          "name": "to",
          "type": "address"
        },
        {
          "internalType": "uint256",
          "name": "tokenId",
          "type": "uint256"
        }
      ],
      "name": "approve",
      "outputs": [],
      "stateMutability": "nonpayable",
      "type": "function"
    },
    {
      "inputs": [
        {
          "internalType": "address",
          "name": "owner",
          "type": "address"
        }
      ],
      "name": "balanceOf",
      "outputs": [
        {
          "internalType": "uint256",
          "name": "",
          "type": "uint256"
        }
      ],
      "stateMutability": "view",
      "type": "function"
    },
    {
      "inputs": [
        {
          "internalType": "uint256",
          "name": "_tokenId",
          "type": "uint256"
        }
      ],
      "name": "burn",
      "outputs": [],
      "stateMutability": "nonpayable",
      "type": "function"
    },
    {
      "inputs": [
        {
          "internalType": "address",
          "name": "_receiver",
          "type": "address"
        },
        {
          "internalType": "uint256",
          "name": "_quantity",
          "type": "uint256"
        },
        {
          "internalType": "address",
          "name": "_currency",
          "type": "address"
        },
        {
          "internalType": "uint256",
          "name": "_pricePerToken",
          "type": "uint256"
        },
        {
          "components": [
            {
              "internalType": "bytes32[]",
              "name": "proof",
              "type": "bytes32[]"
            },
            {
              "internalType": "uint256",
              "name": "maxQuantityInAllowlist",
              "type": "uint256"
            }
          ],
          "internalType": "struct IDropSinglePhase.AllowlistProof",
          "name": "_allowlistProof",
          "type": "tuple"
        },
        {
          "internalType": "bytes",
          "name": "_data",
          "type": "bytes"
        }
      ],
      "name": "claim",
      "outputs": [],
      "stateMutability": "payable",
      "type": "function"
    },
    {
      "inputs": [],
      "name": "claimCondition",
      "outputs": [
        {
          "internalType": "uint256",
          "name": "startTimestamp",
          "type": "uint256"
        },
        {
          "internalType": "uint256",
          "name": "maxClaimableSupply",
          "type": "uint256"
        },
        {
          "internalType": "uint256",
          "name": "supplyClaimed",
          "type": "uint256"
        },
        {
          "internalType": "uint256",
          "name": "quantityLimitPerTransaction",
          "type": "uint256"
        },
        {
          "internalType": "uint256",
          "name": "waitTimeInSecondsBetweenClaims",
          "type": "uint256"
        },
        {
          "internalType": "bytes32",
          "name": "merkleRoot",
          "type": "bytes32"
        },
        {
          "internalType": "uint256",
          "name": "pricePerToken",
          "type": "uint256"
        },
        {
          "internalType": "address",
          "name": "currency",
          "type": "address"
        }
      ],
      "stateMutability": "view",
      "type": "function"
    },
    {
      "inputs": [],
      "name": "contractURI",
      "outputs": [
        {
          "internalType": "string",
          "name": "",
          "type": "string"
        }
      ],
      "stateMutability": "view",
      "type": "function"
    },
    {
      "inputs": [
        {
          "internalType": "bytes",
          "name": "data",
          "type": "bytes"
        },
        {
          "internalType": "bytes",
          "name": "key",
          "type": "bytes"
        }
      ],
      "name": "encryptDecrypt",
      "outputs": [
        {
          "internalType": "bytes",
          "name": "result",
          "type": "bytes"
        }
      ],
      "stateMutability": "pure",
      "type": "function"
    },
    {
      "inputs": [
        {
          "internalType": "uint256",
          "name": "",
          "type": "uint256"
        }
      ],
      "name": "encryptedData",
      "outputs": [
        {
          "internalType": "bytes",
          "name": "",
          "type": "bytes"
        }
      ],
      "stateMutability": "view",
      "type": "function"
    },
    {
      "inputs": [
        {
          "internalType": "uint256",
          "name": "tokenId",
          "type": "uint256"
        }
      ],
      "name": "getApproved",
      "outputs": [
        {
          "internalType": "address",
          "name": "",
          "type": "address"
        }
      ],
      "stateMutability": "view",
      "type": "function"
    },
    {
      "inputs": [],
      "name": "getBaseURICount",
      "outputs": [
        {
          "internalType": "uint256",
          "name": "",
          "type": "uint256"
        }
      ],
      "stateMutability": "view",
      "type": "function"
    },
    {
      "inputs": [
        {
          "internalType": "uint256",
          "name": "_index",
          "type": "uint256"
        }
      ],
      "name": "getBatchIdAtIndex",
      "outputs": [
        {
          "internalType": "uint256",
          "name": "",
          "type": "uint256"
        }
      ],
      "stateMutability": "view",
      "type": "function"
    },
    {
      "inputs": [
        {
          "internalType": "address",
          "name": "_claimer",
          "type": "address"
        }
      ],
      "name": "getClaimTimestamp",
      "outputs": [
        {
          "internalType": "uint256",
          "name": "lastClaimedAt",
          "type": "uint256"
        },
        {
          "internalType": "uint256",
          "name": "nextValidClaimTimestamp",
          "type": "uint256"
        }
      ],
      "stateMutability": "view",
      "type": "function"
    },
    {
      "inputs": [],
      "name": "getDefaultRoyaltyInfo",
      "outputs": [
        {
          "internalType": "address",
          "name": "",
          "type": "address"
        },
        {
          "internalType": "uint16",
          "name": "",
          "type": "uint16"
        }
      ],
      "stateMutability": "view",
      "type": "function"
    },
    {
      "inputs": [
        {
          "internalType": "uint256",
          "name": "_batchId",
          "type": "uint256"
        },
        {
          "internalType": "bytes",
          "name": "_key",
          "type": "bytes"
        }
      ],
      "name": "getRevealURI",
      "outputs": [
        {
          "internalType": "string",
          "name": "revealedURI",
          "type": "string"
        }
      ],
      "stateMutability": "view",
      "type": "function"
    },
    {
      "inputs": [
        {
          "internalType": "uint256",
          "name": "_tokenId",
          "type": "uint256"
        }
      ],
      "name": "getRoyaltyInfoForToken",
      "outputs": [
        {
          "internalType": "address",
          "name": "",
          "type": "address"
        },
        {
          "internalType": "uint16",
          "name": "",
          "type": "uint16"
        }
      ],
      "stateMutability": "view",
      "type": "function"
    },
    {
      "inputs": [
        {
          "internalType": "address",
          "name": "owner",
          "type": "address"
        },
        {
          "internalType": "address",
          "name": "operator",
          "type": "address"
        }
      ],
      "name": "isApprovedForAll",
      "outputs": [
        {
          "internalType": "bool",
          "name": "",
          "type": "bool"
        }
      ],
      "stateMutability": "view",
      "type": "function"
    },
    {
      "inputs": [
        {
          "internalType": "uint256",
          "name": "_batchId",
          "type": "uint256"
        }
      ],
      "name": "isEncryptedBatch",
      "outputs": [
        {
          "internalType": "bool",
          "name": "",
          "type": "bool"
        }
      ],
      "stateMutability": "view",
      "type": "function"
    },
    {
      "inputs": [
        {
          "internalType": "uint256",
          "name": "_amount",
          "type": "uint256"
        },
        {
          "internalType": "string",
          "name": "_baseURIForTokens",
          "type": "string"
        },
        {
          "internalType": "bytes",
          "name": "_data",
          "type": "bytes"
        }
      ],
      "name": "lazyMint",
      "outputs": [
        {
          "internalType": "uint256",
          "name": "batchId",
          "type": "uint256"
        }
      ],
      "stateMutability": "nonpayable",
      "type": "function"
    },
    {
      "inputs": [
        {
          "internalType": "bytes[]",
          "name": "data",
          "type": "bytes[]"
        }
      ],
      "name": "multicall",
      "outputs": [
        {
          "internalType": "bytes[]",
          "name": "results",
          "type": "bytes[]"
        }
      ],
      "stateMutability": "nonpayable",
      "type": "function"
    },
    {
      "inputs": [],
      "name": "name",
      "outputs": [
        {
          "internalType": "string",
          "name": "",
          "type": "string"
        }
      ],
      "stateMutability": "view",
      "type": "function"
    },
    {
      "inputs": [],
      "name": "nextTokenIdToClaim",
      "outputs": [
        {
          "internalType": "uint256",
          "name": "",
          "type": "uint256"
        }
      ],
      "stateMutability": "view",
      "type": "function"
    },
    {
      "inputs": [],
      "name": "nextTokenIdToMint",
      "outputs": [
        {
          "internalType": "uint256",
          "name": "",
          "type": "uint256"
        }
      ],
      "stateMutability": "view",
      "type": "function"
    },
    {
      "inputs": [],
      "name": "owner",
      "outputs": [
        {
          "internalType": "address",
          "name": "",
          "type": "address"
        }
      ],
      "stateMutability": "view",
      "type": "function"
    },
    {
      "inputs": [
        {
          "internalType": "uint256",
          "name": "tokenId",
          "type": "uint256"
        }
      ],
      "name": "ownerOf",
      "outputs": [
        {
          "internalType": "address",
          "name": "",
          "type": "address"
        }
      ],
      "stateMutability": "view",
      "type": "function"
    },
    {
      "inputs": [],
      "name": "primarySaleRecipient",
      "outputs": [
        {
          "internalType": "address",
          "name": "",
          "type": "address"
        }
      ],
      "stateMutability": "view",
      "type": "function"
    },
    {
      "inputs": [
        {
          "internalType": "uint256",
          "name": "_index",
          "type": "uint256"
        },
        {
          "internalType": "bytes",
          "name": "_key",
          "type": "bytes"
        }
      ],
      "name": "reveal",
      "outputs": [
        {
          "internalType": "string",
          "name": "revealedURI",
          "type": "string"
        }
      ],
      "stateMutability": "nonpayable",
      "type": "function"
    },
    {
      "inputs": [
        {
          "internalType": "uint256",
          "name": "tokenId",
          "type": "uint256"
        },
        {
          "internalType": "uint256",
          "name": "salePrice",
          "type": "uint256"
        }
      ],
      "name": "royaltyInfo",
      "outputs": [
        {
          "internalType": "address",
          "name": "receiver",
          "type": "address"
        },
        {
          "internalType": "uint256",
          "name": "royaltyAmount",
          "type": "uint256"
        }
      ],
      "stateMutability": "view",
      "type": "function"
    },
    {
      "inputs": [
        {
          "internalType": "address",
          "name": "from",
          "type": "address"
        },
        {
          "internalType": "address",
          "name": "to",
          "type": "address"
        },
        {
          "internalType": "uint256",
          "name": "tokenId",
          "type": "uint256"
        }
      ],
      "name": "safeTransferFrom",
      "outputs": [],
      "stateMutability": "nonpayable",
      "type": "function"
    },
    {
      "inputs": [
        {
          "internalType": "address",
          "name": "from",
          "type": "address"
        },
        {
          "internalType": "address",
          "name": "to",
          "type": "address"
        },
        {
          "internalType": "uint256",
          "name": "tokenId",
          "type": "uint256"
        },
        {
          "internalType": "bytes",
          "name": "_data",
          "type": "bytes"
        }
      ],
      "name": "safeTransferFrom",
      "outputs": [],
      "stateMutability": "nonpayable",
      "type": "function"
    },
    {
      "inputs": [
        {
          "internalType": "address",
          "name": "operator",
          "type": "address"
        },
        {
          "internalType": "bool",
          "name": "approved",
          "type": "bool"
        }
      ],
      "name": "setApprovalForAll",
      "outputs": [],
      "stateMutability": "nonpayable",
      "type": "function"
    },
    {
      "inputs": [
        {
          "components": [
            {
              "internalType": "uint256",
              "name": "startTimestamp",
              "type": "uint256"
            },
            {
              "internalType": "uint256",
              "name": "maxClaimableSupply",
              "type": "uint256"
            },
            {
              "internalType": "uint256",
              "name": "supplyClaimed",
              "type": "uint256"
            },
            {
              "internalType": "uint256",
              "name": "quantityLimitPerTransaction",
              "type": "uint256"
            },
            {
              "internalType": "uint256",
              "name": "waitTimeInSecondsBetweenClaims",
              "type": "uint256"
            },
            {
              "internalType": "bytes32",
              "name": "merkleRoot",
              "type": "bytes32"
            },
            {
              "internalType": "uint256",
              "name": "pricePerToken",
              "type": "uint256"
            },
            {
              "internalType": "address",
              "name": "currency",
              "type": "address"
            }
          ],
          "internalType": "struct IClaimCondition.ClaimCondition",
          "name": "_condition",
          "type": "tuple"
        },
        {
          "internalType": "bool",
          "name": "_resetClaimEligibility",
          "type": "bool"
        }
      ],
      "name": "setClaimConditions",
      "outputs": [],
      "stateMutability": "nonpayable",
      "type": "function"
    },
    {
      "inputs": [
        {
          "internalType": "string",
          "name": "_uri",
          "type": "string"
        }
      ],
      "name": "setContractURI",
      "outputs": [],
      "stateMutability": "nonpayable",
      "type": "function"
    },
    {
      "inputs": [
        {
          "internalType": "address",
          "name": "_royaltyRecipient",
          "type": "address"
        },
        {
          "internalType": "uint256",
          "name": "_royaltyBps",
          "type": "uint256"
        }
      ],
      "name": "setDefaultRoyaltyInfo",
      "outputs": [],
      "stateMutability": "nonpayable",
      "type": "function"
    },
    {
      "inputs": [
        {
          "internalType": "address",
          "name": "_newOwner",
          "type": "address"
        }
      ],
      "name": "setOwner",
      "outputs": [],
      "stateMutability": "nonpayable",
      "type": "function"
    },
    {
      "inputs": [
        {
          "internalType": "address",
          "name": "_saleRecipient",
          "type": "address"
        }
      ],
      "name": "setPrimarySaleRecipient",
      "outputs": [],
      "stateMutability": "nonpayable",
      "type": "function"
    },
    {
      "inputs": [
        {
          "internalType": "uint256",
          "name": "_tokenId",
          "type": "uint256"
        },
        {
          "internalType": "address",
          "name": "_recipient",
          "type": "address"
        },
        {
          "internalType": "uint256",
          "name": "_bps",
          "type": "uint256"
        }
      ],
      "name": "setRoyaltyInfoForToken",
      "outputs": [],
      "stateMutability": "nonpayable",
      "type": "function"
    },
    {
      "inputs": [
        {
          "internalType": "bytes4",
          "name": "interfaceId",
          "type": "bytes4"
        }
      ],
      "name": "supportsInterface",
      "outputs": [
        {
          "internalType": "bool",
          "name": "",
          "type": "bool"
        }
      ],
      "stateMutability": "view",
      "type": "function"
    },
    {
      "inputs": [],
      "name": "symbol",
      "outputs": [
        {
          "internalType": "string",
          "name": "",
          "type": "string"
        }
      ],
      "stateMutability": "view",
      "type": "function"
    },
    {
      "inputs": [
        {
          "internalType": "uint256",
          "name": "_tokenId",
          "type": "uint256"
        }
      ],
      "name": "tokenURI",
      "outputs": [
        {
          "internalType": "string",
          "name": "",
          "type": "string"
        }
      ],
      "stateMutability": "view",
      "type": "function"
    },
    {
      "inputs": [],
      "name": "totalSupply",
      "outputs": [
        {
          "internalType": "uint256",
          "name": "",
          "type": "uint256"
        }
      ],
      "stateMutability": "view",
      "type": "function"
    },
    {
      "inputs": [
        {
          "internalType": "address",
          "name": "from",
          "type": "address"
        },
        {
          "internalType": "address",
          "name": "to",
          "type": "address"
        },
        {
          "internalType": "uint256",
          "name": "tokenId",
          "type": "uint256"
        }
      ],
      "name": "transferFrom",
      "outputs": [],
      "stateMutability": "nonpayable",
      "type": "function"
    },
    {
      "inputs": [
        {
          "internalType": "address",
          "name": "_claimer",
          "type": "address"
        },
        {
          "internalType": "uint256",
          "name": "_quantity",
          "type": "uint256"
        },
        {
          "internalType": "address",
          "name": "_currency",
          "type": "address"
        },
        {
          "internalType": "uint256",
          "name": "_pricePerToken",
          "type": "uint256"
        },
        {
          "internalType": "bool",
          "name": "verifyMaxQuantityPerTransaction",
          "type": "bool"
        }
      ],
      "name": "verifyClaim",
      "outputs": [],
      "stateMutability": "view",
      "type": "function"
    },
    {
      "inputs": [
        {
          "internalType": "address",
          "name": "_claimer",
          "type": "address"
        },
        {
          "internalType": "uint256",
          "name": "_quantity",
          "type": "uint256"
        },
        {
          "components": [
            {
              "internalType": "bytes32[]",
              "name": "proof",
              "type": "bytes32[]"
            },
            {
              "internalType": "uint256",
              "name": "maxQuantityInAllowlist",
              "type": "uint256"
            }
          ],
          "internalType": "struct IDropSinglePhase.AllowlistProof",
          "name": "_allowlistProof",
          "type": "tuple"
        }
      ],
      "name": "verifyClaimMerkleProof",
      "outputs": [
        {
          "internalType": "bool",
          "name": "validMerkleProof",
          "type": "bool"
        },
        {
          "internalType": "uint256",
          "name": "merkleProofIndex",
          "type": "uint256"
        }
      ],
      "stateMutability": "view",
      "type": "function"
    }
  ],
  "bytecode": "0x60806040523480156200001157600080fd5b50604051620042f2380380620042f2833981016040819052620000349162000377565b8451859085906200004d906002906020850190620001e7565b50805162000063906003906020840190620001e7565b505060008055506200007533620000a0565b6200008a836001600160801b038416620000f2565b62000095816200019d565b505050505062000464565b600980546001600160a01b038381166001600160a01b0319831681179093556040519116919082907f8292fce18fa69edf4db7b94ea2e58241df0ae57f97e0a6c9b29067028bf92d7690600090a35050565b6127108111156200013b5760405162461bcd60e51b815260206004820152600f60248201526e45786365656473206d61782062707360881b604482015260640160405180910390fd5b600a80546001600160a01b0384166001600160b01b03199091168117600160a01b61ffff851602179091556040518281527f90d7ec04bcb8978719414f82e52e4cb651db41d0e6f8cea6118c2191e6183adb9060200160405180910390a25050565b600e80546001600160a01b0319166001600160a01b0383169081179091556040517f299d17e95023f496e0ffc4909cff1a61f74bb5eb18de6f900f4155bfa1b3b33390600090a250565b828054620001f59062000427565b90600052602060002090601f01602090048101928262000219576000855562000264565b82601f106200023457805160ff191683800117855562000264565b8280016001018555821562000264579182015b828111156200026457825182559160200191906001019062000247565b506200027292915062000276565b5090565b5b8082111562000272576000815560010162000277565b634e487b7160e01b600052604160045260246000fd5b600082601f830112620002b557600080fd5b81516001600160401b0380821115620002d257620002d26200028d565b604051601f8301601f19908116603f01168101908282118183101715620002fd57620002fd6200028d565b816040528381526020925086838588010111156200031a57600080fd5b600091505b838210156200033e57858201830151818301840152908201906200031f565b83821115620003505760008385830101525b9695505050505050565b80516001600160a01b03811681146200037257600080fd5b919050565b600080600080600060a086880312156200039057600080fd5b85516001600160401b0380821115620003a857600080fd5b620003b689838a01620002a3565b96506020880151915080821115620003cd57600080fd5b50620003dc88828901620002a3565b945050620003ed604087016200035a565b60608701519093506001600160801b03811681146200040b57600080fd5b91506200041b608087016200035a565b90509295509295909350565b600181811c908216806200043c57607f821691505b602082108114156200045e57634e487b7160e01b600052602260045260246000fd5b50919050565b613e7e80620004746000396000f3fe60806040526004361061025c5760003560e01c806377312a9e11610144578063b24f2d39116100b6578063d37c353b1161007a578063d37c353b14610762578063d637ed5914610782578063e715032214610802578063e8a3d48514610822578063e985e9c514610837578063ffbb7a131461088057600080fd5b8063b24f2d39146106a2578063b67875ce146106cd578063b88d4fde14610702578063c87b56dd14610722578063ce8056421461074257600080fd5b80639fc4d68f116101085780639fc4d68f146105e0578063a05112fc14610600578063a22cb46514610620578063a72e157d14610640578063ac9650d814610660578063acd083f81461068d57600080fd5b806377312a9e1461054d5780638da5cb5b1461056d578063938e3d7b1461058b57806395d89b41146105ab5780639bcf7a15146105c057600080fd5b80633b1475a7116101dd5780635ab31c1a116101a15780635ab31c1a146104a5578063600dd5ea146104b85780636352211e146104d857806363b45e2d146104f85780636f4f28371461050d57806370a082311461052d57600080fd5b80633b1475a7146103ee57806342842e0e1461040357806342966c6814610423578063492e224b146104435780634cc157df1461046357600080fd5b806313af40351161022457806313af40351461032c57806318160ddd1461034c57806323b872dd1461036f5780632419f51b1461038f5780632a55205a146103af57600080fd5b806301ffc9a71461026157806306fdde0314610296578063079fe40e146102b8578063081812fc146102ea578063095ea7b31461030a575b600080fd5b34801561026d57600080fd5b5061028161027c36600461321f565b6108b7565b60405190151581526020015b60405180910390f35b3480156102a257600080fd5b506102ab610924565b60405161028d9190613294565b3480156102c457600080fd5b50600e546001600160a01b03165b6040516001600160a01b03909116815260200161028d565b3480156102f657600080fd5b506102d26103053660046132a7565b6109b6565b34801561031657600080fd5b5061032a6103253660046132dc565b6109fa565b005b34801561033857600080fd5b5061032a610347366004613306565b610a81565b34801561035857600080fd5b50600154600054035b60405190815260200161028d565b34801561037b57600080fd5b5061032a61038a366004613321565b610aba565b34801561039b57600080fd5b506103616103aa3660046132a7565b610ac5565b3480156103bb57600080fd5b506103cf6103ca36600461335d565b610b33565b604080516001600160a01b03909316835260208301919091520161028d565b3480156103fa57600080fd5b50600f54610361565b34801561040f57600080fd5b5061032a61041e366004613321565b610b70565b34801561042f57600080fd5b5061032a61043e3660046132a7565b610b8b565b34801561044f57600080fd5b5061028161045e3660046132a7565b610b96565b34801561046f57600080fd5b5061048361047e3660046132a7565b610bbc565b604080516001600160a01b03909316835261ffff90911660208301520161028d565b61032a6104b3366004613462565b610c27565b3480156104c457600080fd5b5061032a6104d33660046132dc565b610d59565b3480156104e457600080fd5b506102d26104f33660046132a7565b610d8b565b34801561050457600080fd5b50600c54610361565b34801561051957600080fd5b5061032a610528366004613306565b610d9d565b34801561053957600080fd5b50610361610548366004613306565b610dca565b34801561055957600080fd5b5061032a610568366004613506565b610e18565b34801561057957600080fd5b506009546001600160a01b03166102d2565b34801561059757600080fd5b5061032a6105a6366004613547565b610fd7565b3480156105b757600080fd5b506102ab611004565b3480156105cc57600080fd5b5061032a6105db36600461358f565b611013565b3480156105ec57600080fd5b506102ab6105fb3660046135fc565b611042565b34801561060c57600080fd5b506102ab61061b3660046132a7565b6111c3565b34801561062c57600080fd5b5061032a61063b366004613647565b61125d565b34801561064c57600080fd5b5061032a61065b366004613673565b6112f3565b34801561066c57600080fd5b5061068061067b3660046136ce565b6114ce565b60405161028d9190613742565b34801561069957600080fd5b50600054610361565b3480156106ae57600080fd5b50600a546001600160a01b03811690600160a01b900461ffff16610483565b3480156106d957600080fd5b506106ed6106e8366004613306565b6115c2565b6040805192835260208301919091520161028d565b34801561070e57600080fd5b5061032a61071d3660046137a4565b6115ff565b34801561072e57600080fd5b506102ab61073d3660046132a7565b611649565b34801561074e57600080fd5b506102ab61075d3660046135fc565b6116b8565b34801561076e57600080fd5b5061036161077d36600461380b565b61175b565b34801561078e57600080fd5b506011546012546013546014546015546016546017546018546107be97969594939291906001600160a01b031688565b604080519889526020890197909752958701949094526060860192909252608085015260a084015260c08301526001600160a01b031660e08201526101000161028d565b34801561080e57600080fd5b506102ab61081d366004613884565b6117f3565b34801561082e57600080fd5b506102ab611868565b34801561084357600080fd5b506102816108523660046138df565b6001600160a01b03918216600090815260076020908152604080832093909416825291909152205460ff1690565b34801561088c57600080fd5b506108a061089b366004613912565b611875565b60408051921515835260208301919091520161028d565b60006301ffc9a760e01b6001600160e01b0319831614806108e857506380ac58cd60e01b6001600160e01b03198316145b806109035750635b5e139f60e01b6001600160e01b03198316145b8061091e57506001600160e01b0319821663152a902d60e11b145b92915050565b60606002805461093390613968565b80601f016020809104026020016040519081016040528092919081815260200182805461095f90613968565b80156109ac5780601f10610981576101008083540402835291602001916109ac565b820191906000526020600020905b81548152906001019060200180831161098f57829003601f168201915b5050505050905090565b60006109c182611a68565b6109de576040516333d1c03960e21b815260040160405180910390fd5b506000908152600660205260409020546001600160a01b031690565b6000610a0582610d8b565b9050806001600160a01b0316836001600160a01b03161415610a3a5760405163250fdee360e21b815260040160405180910390fd5b336001600160a01b03821614610a7157610a548133610852565b610a71576040516367d9dca160e11b815260040160405180910390fd5b610a7c838383611a93565b505050565b610a89611aef565b610aae5760405162461bcd60e51b8152600401610aa59061399d565b60405180910390fd5b610ab781611b1c565b50565b610a7c838383611b6e565b6000610ad0600c5490565b8210610b0e5760405162461bcd60e51b815260206004820152600d60248201526c092dcecc2d8d2c840d2dcc8caf609b1b6044820152606401610aa5565b600c8281548110610b2157610b216139c5565b90600052602060002001549050919050565b600080600080610b4286610bbc565b90945084925061ffff169050612710610b5b82876139f1565b610b659190613a26565b925050509250929050565b610a7c838383604051806020016040528060008152506115ff565b610ab7816001611d49565b60008181526010602052604081208054829190610bb290613968565b9050119050919050565b6000818152600b60209081526040808320815180830190925280546001600160a01b031680835260019091015492820192909252829115610c035780516020820151610c1d565b600a546001600160a01b03811690600160a01b900461ffff165b9250925050915091565b610c35868686868686611efc565b601954600080610c46338987611875565b915091506000856020013560001480610c5f5750601654155b9050610c6e338a8a8a856112f3565b828015610c7f575060008660200135115b15610cae576000848152601b60209081526040808320600886901c845290915290208054600160ff85161b1790555b8860116002016000828254610cc39190613a3a565b90915550506000848152601a602090815260408083203384529091528120429055610cf0908a8a8a611f98565b6000610cfc8b8b61204e565b9050806001600160a01b038c16336001600160a01b03167fff097c7d8b1957a4ff09ef1361b5fb54dcede3941ba836d0beb9d10bec725de68d604051610d4491815260200190565b60405180910390a45050505050505050505050565b610d61611aef565b610d7d5760405162461bcd60e51b8152600401610aa59061399d565b610d87828261205b565b5050565b6000610d9682612101565b5192915050565b610da5611aef565b610dc15760405162461bcd60e51b8152600401610aa59061399d565b610ab78161221b565b60006001600160a01b038216610df3576040516323d3ad8160e21b815260040160405180910390fd5b506001600160a01b03166000908152600560205260409020546001600160401b031690565b610e20611aef565b610e3c5760405162461bcd60e51b8152600401610aa59061399d565b6019546013548215610e8b575060003360405160609190911b6bffffffffffffffffffffffff191660208201524360348201526054016040516020818303038152906040528051906020012091505b8360200135811115610ed45760405162461bcd60e51b81526020600482015260126024820152711b585e081cdd5c1c1b1e4818db185a5b595960721b6044820152606401610aa5565b604051806101000160405280856000013581526020018560200135815260200182815260200185606001358152602001856080013581526020018560a0013581526020018560c0013581526020018560e0016020810190610f359190613306565b6001600160a01b03908116909152815160115560208201516012556040808301516013556060830151601455608083015160155560a083015160165560c083015160175560e090920151601880546001600160a01b031916919092161790556019839055517f583ecce39d40d7b7653fd2cb1cdc19aa03714482ffd00fafa242355cdcd7908090610fc99086908690613a52565b60405180910390a150505050565b610fdf611aef565b610ffb5760405162461bcd60e51b8152600401610aa59061399d565b610ab781612265565b60606003805461093390613968565b61101b611aef565b6110375760405162461bcd60e51b8152600401610aa59061399d565b610a7c838383612347565b60008381526010602052604081208054606092919061106090613968565b80601f016020809104026020016040519081016040528092919081815260200182805461108c90613968565b80156110d95780601f106110ae576101008083540402835291602001916110d9565b820191906000526020600020905b8154815290600101906020018083116110bc57829003601f168201915b505050505090508051600014156111265760405162461bcd60e51b8152602060048201526011602482015270139bdd1a1a5b99c81d1bc81c995d99585b607a1b6044820152606401610aa5565b6000808280602001905181019061113d9190613ac0565b9150915061114c8287876117f3565b935080848787466040516020016111669493929190613b40565b60405160208183030381529060405280519060200120146111b95760405162461bcd60e51b815260206004820152600d60248201526c496e636f7272656374206b657960981b6044820152606401610aa5565b5050509392505050565b601060205260009081526040902080546111dc90613968565b80601f016020809104026020016040519081016040528092919081815260200182805461120890613968565b80156112555780601f1061122a57610100808354040283529160200191611255565b820191906000526020600020905b81548152906001019060200180831161123857829003601f168201915b505050505081565b6001600160a01b0382163314156112875760405163b06307db60e01b815260040160405180910390fd5b3360008181526007602090815260408083206001600160a01b03871680855290835292819020805460ff191686151590811790915590519081529192917f17307eab39ab6107e8899845ad3d59bd9653f200f220920489ca2b5937696c31910160405180910390a35050565b604080516101008101825260115481526012546020820152601354918101919091526014546060820152601554608082015260165460a082015260175460c08201526018546001600160a01b0390811660e0830181905290851614158061135e57508060c001518314155b156113ab5760405162461bcd60e51b815260206004820152601960248201527f496e76616c6964207072696365206f722063757272656e6379000000000000006044820152606401610aa5565b8415806113c357508180156113c35750806060015185115b156114035760405162461bcd60e51b815260206004820152601060248201526f496e76616c6964207175616e7469747960801b6044820152606401610aa5565b80602001518582604001516114189190613a3a565b111561145b5760405162461bcd60e51b815260206004820152601260248201527165786365656473206d617820737570706c7960701b6044820152606401610aa5565b600080611467886115c2565b9150915042836000015111806114865750811580159061148657508042105b156114c45760405162461bcd60e51b815260206004820152600e60248201526d18d85b9d0818db185a5b481e595d60921b6044820152606401610aa5565b5050505050505050565b6060816001600160401b038111156114e8576114e8613397565b60405190808252806020026020018201604052801561151b57816020015b60608152602001906001900390816115065790505b50905060005b828110156115bb5761158b3085858481811061153f5761153f6139c5565b90506020028101906115519190613b69565b8080601f01602080910402602001604051908101604052809392919081815260200183838082843760009201919091525061241092505050565b82828151811061159d5761159d6139c5565b602002602001018190525080806115b390613baf565b915050611521565b5092915050565b6019546000908152601a602090815260408083206001600160a01b03851684529091529020546015548101818110156115fa57506000195b915091565b61160a848484611b6e565b6001600160a01b0383163b15611643576116268484848461243c565b611643576040516368d2bf6b60e11b815260040160405180910390fd5b50505050565b6060600061165683612534565b509050600061166484612639565b905061166f82610b96565b1561169d57806040516020016116859190613bca565b60405160208183030381529060405292505050919050565b806116a78561279a565b604051602001611685929190613bef565b60606116c2611aef565b6116de5760405162461bcd60e51b8152600401610aa59061399d565b60006116e985610ac5565b90506116f6818585611042565b91506117118160405180602001604052806000815250612897565b61171b81836128b6565b847f6df1d8db2a036436ffe0b2d1833f2c5f1e624818dfce2578c0faa4b83ef9998d8360405161174b9190613294565b60405180910390a2509392505050565b600081156117dc5760008061177284860186613c1e565b91509150815160001415801561178757508015155b156117d9576117d988600f5461179d9190613a3a565b86868080601f01602080910402602001604051908101604052809392919081815260200183838082843760009201919091525061289792505050565b50505b6117e986868686866128d5565b9695505050505050565b8251604080518083016020019091528181529060005b8181101561185f57600085858360405160200161182893929190613c62565b60408051601f19818403018152919052805160209182012088840182015118858401820152611858915082613a3a565b9050611809565b50509392505050565b600880546111dc90613968565b604080516101008101825260115481526012546020820152601354918101919091526014546060820152601554608082015260165460a0820181905260175460c08301526018546001600160a01b031660e0830152600091829115611a5f5761195d6118e18580613c74565b8080602002602001604051908101604052809392919081815260200183836020028082843760009201919091525050505060a08301516040516bffffffffffffffffffffffff1960608b901b166020808301919091528801356034820152605401604051602081830303815290604052805190602001206129ea565b9093509150826119a25760405162461bcd60e51b815260206004820152601060248201526f1b9bdd081a5b88185b1b1bdddb1a5cdd60821b6044820152606401610aa5565b6019546000908152601b60209081526040808320600886901c8452909152902054600160ff84161b1615611a085760405162461bcd60e51b815260206004820152600d60248201526c1c1c9bdbd98818db185a5b5959609a1b6044820152606401610aa5565b602084013515801590611a1e5750836020013585115b15611a5f5760405162461bcd60e51b815260206004820152601160248201527024b73b30b634b21038ba3c90383937b7b360791b6044820152606401610aa5565b50935093915050565b600080548210801561091e575050600090815260046020526040902054600160e01b900460ff161590565b60008281526006602052604080822080546001600160a01b0319166001600160a01b0387811691821790925591518593918516917f8c5be1e5ebec7d5bd14f71427d1e84f3dd0314c0f7b2291e5b200ac8c7c3b92591a4505050565b6000611b036009546001600160a01b031690565b6001600160a01b0316336001600160a01b031614905090565b600980546001600160a01b038381166001600160a01b0319831681179093556040519116919082907f8292fce18fa69edf4db7b94ea2e58241df0ae57f97e0a6c9b29067028bf92d7690600090a35050565b6000611b7982612101565b9050836001600160a01b031681600001516001600160a01b031614611bb05760405162a1148160e81b815260040160405180910390fd5b6000336001600160a01b0386161480611bce5750611bce8533610852565b80611be9575033611bde846109b6565b6001600160a01b0316145b905080611c0957604051632ce44b5f60e11b815260040160405180910390fd5b6001600160a01b038416611c3057604051633a954ecd60e21b815260040160405180910390fd5b611c3c60008487611a93565b6001600160a01b038581166000908152600560209081526040808320805467ffffffffffffffff198082166001600160401b0392831660001901831617909255898616808652838620805493841693831660019081018416949094179055898652600490945282852080546001600160e01b031916909417600160a01b42909216919091021783558701808452922080549193909116611d10576000548214611d1057805460208601516001600160401b0316600160a01b026001600160e01b03199091166001600160a01b038a16171781555b50505082846001600160a01b0316866001600160a01b0316600080516020613e2983398151915260405160405180910390a45050505050565b6000611d5483612101565b80519091508215611dba576000336001600160a01b0383161480611d7d5750611d7d8233610852565b80611d98575033611d8d866109b6565b6001600160a01b0316145b905080611db857604051632ce44b5f60e11b815260040160405180910390fd5b505b611dc660008583611a93565b6001600160a01b0380821660008181526005602090815260408083208054600160801b6000196001600160401b0380841691909101811667ffffffffffffffff198416811783900482166001908101831690930277ffffffffffffffff0000000000000000ffffffffffffffff19909416179290921783558b86526004909452828520805460ff60e01b1942909316600160a01b026001600160e01b03199091169097179690961716600160e01b178555918901808452922080549194909116611ec4576000548214611ec457805460208701516001600160401b0316600160a01b026001600160e01b03199091166001600160a01b038716171781555b5050604051869250600091506001600160a01b03841690600080516020613e29833981519152908390a4505060018054810190555050565b333214611f315760405162461bcd60e51b81526020600482015260036024820152621093d560ea1b6044820152606401610aa5565b600f5485600054611f429190613a3a565b1115611f905760405162461bcd60e51b815260206004820152601860248201527f4e6f7420656e6f756768206d696e74656420746f6b656e7300000000000000006044820152606401610aa5565b505050505050565b80611fa257611643565b6000611fae82856139f1565b90506001600160a01b03831673eeeeeeeeeeeeeeeeeeeeeeeeeeeeeeeeeeeeeeee141561201c5780341461201c5760405162461bcd60e51b81526020600482015260156024820152744d7573742073656e6420746f74616c20707269636560581b6044820152606401610aa5565b60006001600160a01b038616156120335785612040565b600e546001600160a01b03165b9050611f9084338385612ab8565b60005461091e8383612b02565b61271081111561209f5760405162461bcd60e51b815260206004820152600f60248201526e45786365656473206d61782062707360881b6044820152606401610aa5565b600a80546001600160a01b0384166001600160b01b03199091168117600160a01b61ffff851602179091556040518281527f90d7ec04bcb8978719414f82e52e4cb651db41d0e6f8cea6118c2191e6183adb9060200160405180910390a25050565b60408051606081018252600080825260208201819052918101919091528160005481101561220257600081815260046020908152604091829020825160608101845290546001600160a01b0381168252600160a01b81046001600160401b031692820192909252600160e01b90910460ff161515918101829052906122005780516001600160a01b031615612197579392505050565b5060001901600081815260046020908152604091829020825160608101845290546001600160a01b038116808352600160a01b82046001600160401b031693830193909352600160e01b900460ff16151592810192909252156121fb579392505050565b612197565b505b604051636f96cda160e11b815260040160405180910390fd5b600e80546001600160a01b0319166001600160a01b0383169081179091556040517f299d17e95023f496e0ffc4909cff1a61f74bb5eb18de6f900f4155bfa1b3b33390600090a250565b60006008805461227490613968565b80601f01602080910402602001604051908101604052809291908181526020018280546122a090613968565b80156122ed5780601f106122c2576101008083540402835291602001916122ed565b820191906000526020600020905b8154815290600101906020018083116122d057829003601f168201915b5050855193945061230993600893506020870192509050613170565b507fc9c7c3fe08b88b4df9d4d47ef47d2c43d55c025a0ba88ca442580ed9e7348a16818360405161233b929190613cbd565b60405180910390a15050565b61271081111561238b5760405162461bcd60e51b815260206004820152600f60248201526e45786365656473206d61782062707360881b6044820152606401610aa5565b6040805180820182526001600160a01b0384811680835260208084018681526000898152600b8352869020945185546001600160a01b031916941693909317845591516001909301929092559151838152909185917f7365cf4122f072a3365c20d54eff9b38d73c096c28e1892ec8f5b0e403a0f12d910160405180910390a3505050565b60606124358383604051806060016040528060278152602001613e0260279139612b1c565b9392505050565b604051630a85bd0160e11b81526000906001600160a01b0385169063150b7a0290612471903390899088908890600401613ceb565b602060405180830381600087803b15801561248b57600080fd5b505af19250505080156124bb575060408051601f3d908101601f191682019092526124b891810190613d1e565b60015b612516573d8080156124e9576040519150601f19603f3d011682016040523d82523d6000602084013e6124ee565b606091505b50805161250e576040516368d2bf6b60e11b815260040160405180910390fd5b805181602001fd5b6001600160e01b031916630a85bd0160e11b1490505b949350505050565b6000806000612542600c5490565b90506000600c80548060200260200160405190810160405280929190818152602001828054801561259257602002820191906000526020600020905b81548152602001906001019080831161257e575b5050505050905060005b828110156125fe578181815181106125b6576125b66139c5565b60200260200101518610156125ec578093508181815181106125da576125da6139c5565b60200260200101519450505050915091565b6125f7600182613a3a565b905061259c565b5060405162461bcd60e51b815260206004820152600f60248201526e125b9d985b1a59081d1bdad95b9259608a1b6044820152606401610aa5565b60606000612646600c5490565b90506000600c80548060200260200160405190810160405280929190818152602001828054801561269657602002820191906000526020600020905b815481526020019060010190808311612682575b5050505050905060005b828110156125fe578181815181106126ba576126ba6139c5565b602002602001015185101561278857600d60008383815181106126df576126df6139c5565b60200260200101518152602001908152602001600020805461270090613968565b80601f016020809104026020016040519081016040528092919081815260200182805461272c90613968565b80156127795780601f1061274e57610100808354040283529160200191612779565b820191906000526020600020905b81548152906001019060200180831161275c57829003601f168201915b50505050509350505050919050565b612793600182613a3a565b90506126a0565b6060816127be5750506040805180820190915260018152600360fc1b602082015290565b8160005b81156127e857806127d281613baf565b91506127e19050600a83613a26565b91506127c2565b6000816001600160401b0381111561280257612802613397565b6040519080825280601f01601f19166020018201604052801561282c576020820181803683370190505b5090505b841561252c57612841600183613d3b565b915061284e600a86613d52565b612859906030613a3a565b60f81b81838151811061286e5761286e6139c5565b60200101906001600160f81b031916908160001a905350612890600a86613a26565b9450612830565b60008281526010602090815260409091208251610a7c92840190613170565b6000828152600d602090815260409091208251610a7c92840190613170565b60006128df611aef565b6128fb5760405162461bcd60e51b8152600401610aa59061399d565b8561293b5760405162461bcd60e51b815260206004820152601060248201526f4d696e74696e67203020746f6b656e7360801b6044820152606401610aa5565b6000600f549050612983818888888080601f016020809104026020016040519081016040528093929190818152602001838380828437600092019190915250612bef92505050565b600f919091559150807f2a0365091ef1a40953c670dce28177e37520648a6fdc91506bffac0ab045570d60016129b98a84613a3a565b6129c39190613d3b565b888888886040516129d8959493929190613d8f565b60405180910390a25095945050505050565b6000808281805b8751811015612aac57612a056002836139f1565b91506000888281518110612a1b57612a1b6139c5565b60200260200101519050808411612a5d576040805160208101869052908101829052606001604051602081830303815290604052805190602001209350612a99565b6040805160208101839052908101859052606001604051602081830303815290604052805190602001209350600183612a969190613a3a565b92505b5080612aa481613baf565b9150506129f1565b50941495939450505050565b80612ac257611643565b6001600160a01b03841673eeeeeeeeeeeeeeeeeeeeeeeeeeeeeeeeeeeeeeee1415612af657612af18282612c53565b611643565b61164384848484612cf6565b610d87828260405180602001604052806000815250612d4f565b60606001600160a01b0384163b612b845760405162461bcd60e51b815260206004820152602660248201527f416464726573733a2064656c65676174652063616c6c20746f206e6f6e2d636f6044820152651b9d1c9858dd60d21b6064820152608401610aa5565b600080856001600160a01b031685604051612b9f9190613dc8565b600060405180830381855af49150503d8060008114612bda576040519150601f19603f3d011682016040523d82523d6000602084013e612bdf565b606091505b50915091506117e9828286612eef565b600080612bfc8486613a3a565b600c8054600181019091557fdf6966c971051c3d54ec59162606531493a51404a002842f56009d7e5cf4a8c7018190556000818152600d602090815260409091208551929450849350611a5f929091860190613170565b6000826001600160a01b03168260405160006040518083038185875af1925050503d8060008114612ca0576040519150601f19603f3d011682016040523d82523d6000602084013e612ca5565b606091505b5050905080610a7c5760405162461bcd60e51b815260206004820152601c60248201527f6e617469766520746f6b656e207472616e73666572206661696c6564000000006044820152606401610aa5565b816001600160a01b0316836001600160a01b03161415612d1557611643565b6001600160a01b038316301415612d3a57612af16001600160a01b0385168383612f28565b6116436001600160a01b038516848484612f8b565b6000546001600160a01b038416612d7857604051622e076360e81b815260040160405180910390fd5b82612d965760405163b562e8dd60e01b815260040160405180910390fd5b6001600160a01b038416600081815260056020908152604080832080546fffffffffffffffffffffffffffffffff1981166001600160401b038083168b0181169182176801000000000000000067ffffffffffffffff1990941690921783900481168b01811690920217909155858452600490925290912080546001600160e01b0319168317600160a01b42909316929092029190911790558190818501903b15612eac575b60405182906001600160a01b03881690600090600080516020613e29833981519152908290a4612e75600087848060010195508761243c565b612e92576040516368d2bf6b60e11b815260040160405180910390fd5b808210612e3c578260005414612ea757600080fd5b612edf565b5b6040516001830192906001600160a01b03881690600090600080516020613e29833981519152908290a4808210612ead575b5060009081556116439085838684565b60608315612efe575081612435565b825115612f0e5782518084602001fd5b8160405162461bcd60e51b8152600401610aa59190613294565b6040516001600160a01b038316602482015260448101829052610a7c90849063a9059cbb60e01b906064015b60408051601f198184030181529190526020810180516001600160e01b03166001600160e01b031990931692909217909152612fc3565b6040516001600160a01b03808516602483015283166044820152606481018290526116439085906323b872dd60e01b90608401612f54565b6000613018826040518060400160405280602081526020017f5361666545524332303a206c6f772d6c6576656c2063616c6c206661696c6564815250856001600160a01b03166130959092919063ffffffff16565b805190915015610a7c57808060200190518101906130369190613de4565b610a7c5760405162461bcd60e51b815260206004820152602a60248201527f5361666545524332303a204552433230206f7065726174696f6e20646964206e6044820152691bdd081cdd58d8d9595960b21b6064820152608401610aa5565b606061252c8484600085856001600160a01b0385163b6130f75760405162461bcd60e51b815260206004820152601d60248201527f416464726573733a2063616c6c20746f206e6f6e2d636f6e74726163740000006044820152606401610aa5565b600080866001600160a01b031685876040516131139190613dc8565b60006040518083038185875af1925050503d8060008114613150576040519150601f19603f3d011682016040523d82523d6000602084013e613155565b606091505b5091509150613165828286612eef565b979650505050505050565b82805461317c90613968565b90600052602060002090601f01602090048101928261319e57600085556131e4565b82601f106131b757805160ff19168380011785556131e4565b828001600101855582156131e4579182015b828111156131e45782518255916020019190600101906131c9565b506131f09291506131f4565b5090565b5b808211156131f057600081556001016131f5565b6001600160e01b031981168114610ab757600080fd5b60006020828403121561323157600080fd5b813561243581613209565b60005b8381101561325757818101518382015260200161323f565b838111156116435750506000910152565b6000815180845261328081602086016020860161323c565b601f01601f19169290920160200192915050565b6020815260006124356020830184613268565b6000602082840312156132b957600080fd5b5035919050565b80356001600160a01b03811681146132d757600080fd5b919050565b600080604083850312156132ef57600080fd5b6132f8836132c0565b946020939093013593505050565b60006020828403121561331857600080fd5b612435826132c0565b60008060006060848603121561333657600080fd5b61333f846132c0565b925061334d602085016132c0565b9150604084013590509250925092565b6000806040838503121561337057600080fd5b50508035926020909101359150565b60006040828403121561339157600080fd5b50919050565b634e487b7160e01b600052604160045260246000fd5b604051601f8201601f191681016001600160401b03811182821017156133d5576133d5613397565b604052919050565b60006001600160401b038211156133f6576133f6613397565b50601f01601f191660200190565b6000613417613412846133dd565b6133ad565b905082815283838301111561342b57600080fd5b828260208301376000602084830101529392505050565b600082601f83011261345357600080fd5b61243583833560208501613404565b60008060008060008060c0878903121561347b57600080fd5b613484876132c0565b955060208701359450613499604088016132c0565b93506060870135925060808701356001600160401b03808211156134bc57600080fd5b6134c88a838b0161337f565b935060a08901359150808211156134de57600080fd5b506134eb89828a01613442565b9150509295509295509295565b8015158114610ab757600080fd5b60008082840361012081121561351b57600080fd5b6101008082121561352b57600080fd5b849350830135905061353c816134f8565b809150509250929050565b60006020828403121561355957600080fd5b81356001600160401b0381111561356f57600080fd5b8201601f8101841361358057600080fd5b61252c84823560208401613404565b6000806000606084860312156135a457600080fd5b8335925061334d602085016132c0565b60008083601f8401126135c657600080fd5b5081356001600160401b038111156135dd57600080fd5b6020830191508360208285010111156135f557600080fd5b9250929050565b60008060006040848603121561361157600080fd5b8335925060208401356001600160401b0381111561362e57600080fd5b61363a868287016135b4565b9497909650939450505050565b6000806040838503121561365a57600080fd5b613663836132c0565b9150602083013561353c816134f8565b600080600080600060a0868803121561368b57600080fd5b613694866132c0565b9450602086013593506136a9604087016132c0565b92506060860135915060808601356136c0816134f8565b809150509295509295909350565b600080602083850312156136e157600080fd5b82356001600160401b03808211156136f857600080fd5b818501915085601f83011261370c57600080fd5b81358181111561371b57600080fd5b8660208260051b850101111561373057600080fd5b60209290920196919550909350505050565b6000602080830181845280855180835260408601915060408160051b870101925083870160005b8281101561379757603f19888603018452613785858351613268565b94509285019290850190600101613769565b5092979650505050505050565b600080600080608085870312156137ba57600080fd5b6137c3856132c0565b93506137d1602086016132c0565b92506040850135915060608501356001600160401b038111156137f357600080fd5b6137ff87828801613442565b91505092959194509250565b60008060008060006060868803121561382357600080fd5b8535945060208601356001600160401b038082111561384157600080fd5b61384d89838a016135b4565b9096509450604088013591508082111561386657600080fd5b50613873888289016135b4565b969995985093965092949392505050565b60008060006040848603121561389957600080fd5b83356001600160401b03808211156138b057600080fd5b6138bc87838801613442565b945060208601359150808211156138d257600080fd5b5061363a868287016135b4565b600080604083850312156138f257600080fd5b6138fb836132c0565b9150613909602084016132c0565b90509250929050565b60008060006060848603121561392757600080fd5b613930846132c0565b92506020840135915060408401356001600160401b0381111561395257600080fd5b61395e8682870161337f565b9150509250925092565b600181811c9082168061397c57607f821691505b6020821081141561339157634e487b7160e01b600052602260045260246000fd5b6020808252600e908201526d139bdd08185d5d1a1bdc9a5e995960921b604082015260600190565b634e487b7160e01b600052603260045260246000fd5b634e487b7160e01b600052601160045260246000fd5b6000816000190483118215151615613a0b57613a0b6139db565b500290565b634e487b7160e01b600052601260045260246000fd5b600082613a3557613a35613a10565b500490565b60008219821115613a4d57613a4d6139db565b500190565b823581526020808401359082015260408084013590820152606080840135908201526080808401359082015260a0808401359082015260c0808401359082015261012081016001600160a01b03613aab60e086016132c0565b1660e083015291151561010090910152919050565b60008060408385031215613ad357600080fd5b82516001600160401b03811115613ae957600080fd5b8301601f81018513613afa57600080fd5b8051613b08613412826133dd565b818152866020838501011115613b1d57600080fd5b613b2e82602083016020860161323c565b60209590950151949694955050505050565b60008551613b52818460208a0161323c565b820184868237909301918252506020019392505050565b6000808335601e19843603018112613b8057600080fd5b8301803591506001600160401b03821115613b9a57600080fd5b6020019150368190038213156135f557600080fd5b6000600019821415613bc357613bc36139db565b5060010190565b60008251613bdc81846020870161323c565b600360fc1b920191825250600101919050565b60008351613c0181846020880161323c565b835190830190613c1581836020880161323c565b01949350505050565b60008060408385031215613c3157600080fd5b82356001600160401b03811115613c4757600080fd5b613c5385828601613442565b95602094909401359450505050565b82848237909101908152602001919050565b6000808335601e19843603018112613c8b57600080fd5b8301803591506001600160401b03821115613ca557600080fd5b6020019150600581901b36038213156135f557600080fd5b604081526000613cd06040830185613268565b8281036020840152613ce28185613268565b95945050505050565b6001600160a01b03858116825284166020820152604081018390526080606082018190526000906117e990830184613268565b600060208284031215613d3057600080fd5b815161243581613209565b600082821015613d4d57613d4d6139db565b500390565b600082613d6157613d61613a10565b500690565b81835281816020850137506000828201602090810191909152601f909101601f19169091010190565b858152606060208201526000613da9606083018688613d66565b8281036040840152613dbc818587613d66565b98975050505050505050565b60008251613dda81846020870161323c565b9190910192915050565b600060208284031215613df657600080fd5b8151612435816134f856fe416464726573733a206c6f772d6c6576656c2064656c65676174652063616c6c206661696c6564ddf252ad1be2c89b69c2b068fc378daa952ba7f163c4a11628f55a4df523b3efa264697066735822122064d73059dc0fdb29747edec7020290779d65618ed38fe1eb87db7403c3d0103364736f6c63430008090033",
  "linkReferences": {},
  "deployedLinkReferences": {}
}